{"abi":[{"type":"constructor","inputs":[{"name":"_feeVault","type":"address","internalType":"address"},{"name":"_feeBps","type":"uint256","internalType":"uint256"}],"stateMutability":"nonpayable"},{"type":"receive","stateMutability":"payable"},{"type":"function","name":"MAX_FEE_BPS","inputs":[],"outputs":[{"name":"","type":"uint256","internalType":"uint256"}],"stateMutability":"view"},{"type":"function","name":"MAX_SLIPPAGE_BPS","inputs":[],"outputs":[{"name":"","type":"uint256","internalType":"uint256"}],"stateMutability":"view"},{"type":"function","name":"NATIVE","inputs":[],"outputs":[{"name":"","type":"address","internalType":"address"}],"stateMutability":"view"},{"type":"function","name":"approvedTargets","inputs":[{"name":"","type":"address","internalType":"address"}],"outputs":[{"name":"","type":"bool","internalType":"bool"}],"stateMutability":"view"},{"type":"function","name":"executeSwap","inputs":[{"name":"tokenIn","type":"address","internalType":"address"},{"name":"tokenOut","type":"address","internalType":"address"},{"name":"amountIn","type":"uint256","internalType":"uint256"},{"name":"minAmountOut","type":"uint256","internalType":"uint256"},{"name":"deadline","type":"uint256","internalType":"uint256"},{"name":"aggregatorTarget","type":"address","internalType":"address"},{"name":"aggregatorCalldata","type":"bytes","internalType":"bytes"}],"outputs":[{"name":"amountOut","type":"uint256","internalType":"uint256"}],"stateMutability":"payable"},{"type":"function","name":"feeBps","inputs":[],"outputs":[{"name":"","type":"uint256","internalType":"uint256"}],"stateMutability":"view"},{"type":"function","name":"feeVault","inputs":[],"outputs":[{"name":"","type":"address","internalType":"address"}],"stateMutability":"view"},{"type":"function","name":"owner","inputs":[],"outputs":[{"name":"","type":"address","internalType":"address"}],"stateMutability":"view"},{"type":"function","name":"rescueToken","inputs":[{"name":"token","type":"address","internalType":"address"},{"name":"amount","type":"uint256","internalType":"uint256"}],"outputs":[],"stateMutability":"nonpayable"},{"type":"function","name":"setApprovedTarget","inputs":[{"name":"target","type":"address","internalType":"address"},{"name":"approved","type":"bool","internalType":"bool"}],"outputs":[],"stateMutability":"nonpayable"},{"type":"function","name":"setFeeBps","inputs":[{"name":"newFeeBps","type":"uint256","internalType":"uint256"}],"outputs":[],"stateMutability":"nonpayable"},{"type":"function","name":"setFeeVault","inputs":[{"name":"newVault","type":"address","internalType":"address"}],"outputs":[],"stateMutability":"nonpayable"},{"type":"function","name":"transferOwnership","inputs":[{"name":"newOwner","type":"address","internalType":"address"}],"outputs":[],"stateMutability":"nonpayable"},{"type":"event","name":"FeeUpdated","inputs":[{"name":"oldFeeBps","type":"uint256","indexed":false,"internalType":"uint256"},{"name":"newFeeBps","type":"uint256","indexed":false,"internalType":"uint256"}],"anonymous":false},{"type":"event","name":"OwnershipTransferred","inputs":[{"name":"previousOwner","type":"address","indexed":true,"internalType":"address"},{"name":"newOwner","type":"address","indexed":true,"internalType":"address"}],"anonymous":false},{"type":"event","name":"SwapExecuted","inputs":[{"name":"user","type":"address","indexed":true,"internalType":"address"},{"name":"tokenIn","type":"address","indexed":true,"internalType":"address"},{"name":"tokenOut","type":"address","indexed":true,"internalType":"address"},{"name":"amountIn","type":"uint256","indexed":false,"internalType":"uint256"},{"name":"amountOut","type":"uint256","indexed":false,"internalType":"uint256"},{"name":"aggregator","type":"address","indexed":false,"internalType":"address"},{"name":"feeAmount","type":"uint256","indexed":false,"internalType":"uint256"}],"anonymous":false},{"type":"event","name":"TargetApproved","inputs":[{"name":"target","type":"address","indexed":true,"internalType":"address"},{"name":"approved","type":"bool","indexed":false,"internalType":"bool"}],"anonymous":false},{"type":"error","name":"DeadlineExpired","inputs":[]},{"type":"error","name":"FeeTooHigh","inputs":[{"name":"proposed","type":"uint256","internalType":"uint256"},{"name":"max","type":"uint256","internalType":"uint256"}]},{"type":"error","name":"InvalidAmount","inputs":[]},{"type":"error","name":"NotOwner","inputs":[]},{"type":"error","name":"Reentrant","inputs":[]},{"type":"error","name":"SlippageExceeded","inputs":[{"name":"minRequired","type":"uint256","internalType":"uint256"},{"name":"received","type":"uint256","internalType":"uint256"}]},{"type":"error","name":"TransferFailed","inputs":[]},{"type":"error","name":"UnauthorizedTarget","inputs":[{"name":"target","type":"address","internalType":"address"}]},{"type":"error","name":"ZeroAddress","inputs":[]}],"bytecode":{"object":"0x608060405234801561001057600080fd5b50604051610f90380380610f9083398101604081905261002f916100e7565b6001600160a01b0382166100565760405163d92e233d60e01b815260040160405180910390fd5b6032811115610086576040516373ab893560e11b8152600481018290526032602482015260440160405180910390fd5b60008054336001600160a01b031991821681178355600180549092166001600160a01b0386161790915560028390556040519091907f8be0079c531659141344cd1fd0a4f28419497f9722a3daafe3b4186f6b6457e0908290a35050610121565b600080604083850312156100fa57600080fd5b82516001600160a01b038116811461011157600080fd5b6020939093015192949293505050565b610e60806101306000396000f3fe6080604052600436106100c65760003560e01c8063a0cf0aea1161007f578063d55be8c611610059578063d55be8c61461022a578063e229cd761461023f578063f13545f014610255578063f2fde38b1461026857600080fd5b8063a0cf0aea146101d5578063a591f97f146101ea578063b7f9a7481461020a57600080fd5b806324a9d853146100d257806333f3d628146100fb578063478222c21461011d57806372c27b62146101555780638da5cb5b146101755780639779d1a61461019557600080fd5b366100cd57005b600080fd5b3480156100de57600080fd5b506100e860025481565b6040519081526020015b60405180910390f35b34801561010757600080fd5b5061011b610116366004610be5565b610288565b005b34801561012957600080fd5b5060015461013d906001600160a01b031681565b6040516001600160a01b0390911681526020016100f2565b34801561016157600080fd5b5061011b610170366004610c0f565b6102cf565b34801561018157600080fd5b5060005461013d906001600160a01b031681565b3480156101a157600080fd5b506101c56101b0366004610c28565b60036020526000908152604090205460ff1681565b60405190151581526020016100f2565b3480156101e157600080fd5b5061013d600081565b3480156101f657600080fd5b5061011b610205366004610c28565b61036c565b34801561021657600080fd5b5061011b610225366004610c5b565b6103e0565b34801561023657600080fd5b506100e8603281565b34801561024b57600080fd5b506100e86103e881565b6100e8610263366004610c92565b61046a565b34801561027457600080fd5b5061011b610283366004610c28565b6107bd565b6000546001600160a01b031633146102b3576040516330cd747160e01b815260040160405180910390fd5b6000546102cb9083906001600160a01b03168361086a565b5050565b6000546001600160a01b031633146102fa576040516330cd747160e01b815260040160405180910390fd5b603281111561032b576040516373ab893560e11b815260048101829052603260248201526044015b60405180910390fd5b60025460408051918252602082018390527f528d9479e9f9889a87a3c30c7f7ba537e5e59c4c85a37733b16e57c62df61302910160405180910390a1600255565b6000546001600160a01b03163314610397576040516330cd747160e01b815260040160405180910390fd5b6001600160a01b0381166103be5760405163d92e233d60e01b815260040160405180910390fd5b600180546001600160a01b0319166001600160a01b0392909216919091179055565b6000546001600160a01b0316331461040b576040516330cd747160e01b815260040160405180910390fd5b6001600160a01b038216600081815260036020908152604091829020805460ff191685151590811790915591519182527f1544fe18ad8a1b607a5147fee4bed9273c6c8c53b721318602ef311de4f4c939910160405180910390a25050565b600060045460010361048f5760405163769dd35360e11b815260040160405180910390fd5b60016004556001600160a01b03841660009081526003602052604090205460ff166104d8576040516310d59ca160e21b81526001600160a01b0385166004820152602401610322565b866000036104f95760405163162908e360e11b815260040160405180910390fd5b8442111561051a57604051631ab7da6b60e01b815260040160405180910390fd5b6001600160a01b03891615610540576105358933308a610902565b6105408985896109fa565b600061054b89610ae9565b905060006001600160a01b038b1615610565576000610567565b885b90506000866001600160a01b0316828787604051610586929190610d53565b60006040518083038185875af1925050503d80600081146105c3576040519150601f19603f3d011682016040523d82523d6000602084013e6105c8565b606091505b50509050806105ea576040516312171d8360e31b815260040160405180910390fd5b6001600160a01b038c1615610685576040516370a0823160e01b81523060048201526000906001600160a01b038e16906370a0823190602401602060405180830381865afa158015610640573d6000803e3d6000fd5b505050506040513d601f19601f820116820180604052508101906106649190610d63565b90508015610677576106778d3383610b6f565b6106838d8960006109fa565b505b8261068f8c610ae9565b6106999190610d92565b9350888410156106c6576040516371c4efed60e01b8152600481018a905260248101859052604401610322565b600080600254116106d85760006106f3565b612710600254866106e99190610da5565b6106f39190610dbc565b905060006107018287610d92565b9050811561072157600154610721908e906001600160a01b03168461086a565b61072c8d338361086a565b8c6001600160a01b03168e6001600160a01b0316336001600160a01b03167f15c0f0cd3636d02094a48879a1b3d233ae630d140a0a65aeee9f3f9ba4e709898f858e8860405161079e949392919093845260208401929092526001600160a01b03166040830152606082015260800190565b60405180910390a45050600060045550919a9950505050505050505050565b6000546001600160a01b031633146107e8576040516330cd747160e01b815260040160405180910390fd5b6001600160a01b03811661080f5760405163d92e233d60e01b815260040160405180910390fd5b600080546040516001600160a01b03808516939216917f8be0079c531659141344cd1fd0a4f28419497f9722a3daafe3b4186f6b6457e091a3600080546001600160a01b0319166001600160a01b0392909216919091179055565b6001600160a01b0383166108f2576000826001600160a01b03168260405160006040518083038185875af1925050503d80600081146108c5576040519150601f19603f3d011682016040523d82523d6000602084013e6108ca565b606091505b50509050806108ec576040516312171d8360e31b815260040160405180910390fd5b50505050565b6108fd838383610b6f565b505050565b6040516001600160a01b038481166024830152838116604483015260648201839052600091829187169060840160408051601f198184030181529181526020820180516001600160e01b03166323b872dd60e01b179052516109649190610dde565b6000604051808303816000865af19150503d80600081146109a1576040519150601f19603f3d011682016040523d82523d6000602084013e6109a6565b606091505b50915091508115806109d457508051158015906109d45750808060200190518101906109d29190610e0d565b155b156109f2576040516312171d8360e31b815260040160405180910390fd5b505050505050565b6040516001600160a01b03838116602483015260448201839052600091829186169060640160408051601f198184030181529181526020820180516001600160e01b031663095ea7b360e01b17905251610a549190610dde565b6000604051808303816000865af19150503d8060008114610a91576040519150601f19603f3d011682016040523d82523d6000602084013e610a96565b606091505b5091509150811580610ac45750805115801590610ac4575080806020019051810190610ac29190610e0d565b155b15610ae2576040516312171d8360e31b815260040160405180910390fd5b5050505050565b60006001600160a01b03821615610b67576040516370a0823160e01b81523060048201526001600160a01b038316906370a0823190602401602060405180830381865afa158015610b3e573d6000803e3d6000fd5b505050506040513d601f19601f82011682018060405250810190610b629190610d63565b610b69565b475b92915050565b6040516001600160a01b03838116602483015260448201839052600091829186169060640160408051601f198184030181529181526020820180516001600160e01b031663a9059cbb60e01b17905251610a549190610dde565b80356001600160a01b0381168114610be057600080fd5b919050565b60008060408385031215610bf857600080fd5b610c0183610bc9565b946020939093013593505050565b600060208284031215610c2157600080fd5b5035919050565b600060208284031215610c3a57600080fd5b610c4382610bc9565b9392505050565b8015158114610c5857600080fd5b50565b60008060408385031215610c6e57600080fd5b610c7783610bc9565b91506020830135610c8781610c4a565b809150509250929050565b60008060008060008060008060e0898b031215610cae57600080fd5b610cb789610bc9565b9750610cc560208a01610bc9565b9650604089013595506060890135945060808901359350610ce860a08a01610bc9565b925060c089013567ffffffffffffffff80821115610d0557600080fd5b818b0191508b601f830112610d1957600080fd5b813581811115610d2857600080fd5b8c6020828501011115610d3a57600080fd5b6020830194508093505050509295985092959890939650565b8183823760009101908152919050565b600060208284031215610d7557600080fd5b5051919050565b634e487b7160e01b600052601160045260246000fd5b81810381811115610b6957610b69610d7c565b8082028115828204841417610b6957610b69610d7c565b600082610dd957634e487b7160e01b600052601260045260246000fd5b500490565b6000825160005b81811015610dff5760208186018101518583015201610de5565b506000920191825250919050565b600060208284031215610e1f57600080fd5b8151610c4381610c4a56fea2646970667358221220ea2a17104c28d5ae9f1c882016b0e275b1a6cef765f4da69426bd6384852c63a64736f6c63430008180033","linkReferences":{}},"methodIdentifiers":{"MAX_FEE_BPS()":"d55be8c6","MAX_SLIPPAGE_BPS()":"e229cd76","NATIVE()":"a0cf0aea","approvedTargets(address)":"9779d1a6","executeSwap(address,address,uint256,uint256,uint256,address,bytes)":"f13545f0","feeBps()":"24a9d853","feeVault()":"478222c2","owner()":"8da5cb5b","rescueToken(address,uint256)":"33f3d628","setApprovedTarget(address,bool)":"b7f9a748","setFeeBps(uint256)":"72c27b62","setFeeVault(address)":"a591f97f","transferOwnership(address)":"f2fde38b"},"id":48}