{"abi":[{"type":"function","name":"cancelOrder","inputs":[{"name":"orderId","type":"uint256","internalType":"uint256"}],"outputs":[],"stateMutability":"nonpayable"},{"type":"function","name":"createOrder","inputs":[{"name":"tokenIn","type":"address","internalType":"address"},{"name":"tokenOut","type":"address","internalType":"address"},{"name":"amountIn","type":"uint256","internalType":"uint256"},{"name":"minAmountOut","type":"uint256","internalType":"uint256"},{"name":"maxGasPrice","type":"uint256","internalType":"uint256"},{"name":"expiresAt","type":"uint256","internalType":"uint256"},{"name":"aggregatorTarget","type":"address","internalType":"address"},{"name":"aggregatorCalldata","type":"bytes","internalType":"bytes"}],"outputs":[{"name":"orderId","type":"uint256","internalType":"uint256"}],"stateMutability":"nonpayable"},{"type":"function","name":"executeOrder","inputs":[{"name":"orderId","type":"uint256","internalType":"uint256"}],"outputs":[],"stateMutability":"nonpayable"},{"type":"function","name":"executionProxy","inputs":[],"outputs":[{"name":"","type":"address","internalType":"address"}],"stateMutability":"view"},{"type":"function","name":"getUserOrders","inputs":[{"name":"user","type":"address","internalType":"address"}],"outputs":[{"name":"","type":"uint256[]","internalType":"uint256[]"}],"stateMutability":"view"},{"type":"function","name":"initialize","inputs":[{"name":"_executionProxy","type":"address","internalType":"address"}],"outputs":[],"stateMutability":"nonpayable"},{"type":"function","name":"keepers","inputs":[{"name":"","type":"address","internalType":"address"}],"outputs":[{"name":"","type":"bool","internalType":"bool"}],"stateMutability":"view"},{"type":"function","name":"nextOrderId","inputs":[],"outputs":[{"name":"","type":"uint256","internalType":"uint256"}],"stateMutability":"view"},{"type":"function","name":"orders","inputs":[{"name":"","type":"uint256","internalType":"uint256"}],"outputs":[{"name":"user","type":"address","internalType":"address"},{"name":"tokenIn","type":"address","internalType":"address"},{"name":"tokenOut","type":"address","internalType":"address"},{"name":"amountIn","type":"uint256","internalType":"uint256"},{"name":"minAmountOut","type":"uint256","internalType":"uint256"},{"name":"maxGasPrice","type":"uint256","internalType":"uint256"},{"name":"expiresAt","type":"uint256","internalType":"uint256"},{"name":"active","type":"bool","internalType":"bool"},{"name":"aggregatorTarget","type":"address","internalType":"address"},{"name":"aggregatorCalldata","type":"bytes","internalType":"bytes"}],"stateMutability":"view"},{"type":"function","name":"owner","inputs":[],"outputs":[{"name":"","type":"address","internalType":"address"}],"stateMutability":"view"},{"type":"function","name":"proxiableUUID","inputs":[],"outputs":[{"name":"","type":"bytes32","internalType":"bytes32"}],"stateMutability":"view"},{"type":"function","name":"renounceOwnership","inputs":[],"outputs":[],"stateMutability":"nonpayable"},{"type":"function","name":"setExecutionProxy","inputs":[{"name":"proxy","type":"address","internalType":"address"}],"outputs":[],"stateMutability":"nonpayable"},{"type":"function","name":"setKeeper","inputs":[{"name":"keeper","type":"address","internalType":"address"},{"name":"allowed","type":"bool","internalType":"bool"}],"outputs":[],"stateMutability":"nonpayable"},{"type":"function","name":"transferOwnership","inputs":[{"name":"newOwner","type":"address","internalType":"address"}],"outputs":[],"stateMutability":"nonpayable"},{"type":"function","name":"upgradeTo","inputs":[{"name":"newImplementation","type":"address","internalType":"address"}],"outputs":[],"stateMutability":"nonpayable"},{"type":"function","name":"upgradeToAndCall","inputs":[{"name":"newImplementation","type":"address","internalType":"address"},{"name":"data","type":"bytes","internalType":"bytes"}],"outputs":[],"stateMutability":"payable"},{"type":"function","name":"userOrders","inputs":[{"name":"","type":"address","internalType":"address"},{"name":"","type":"uint256","internalType":"uint256"}],"outputs":[{"name":"","type":"uint256","internalType":"uint256"}],"stateMutability":"view"},{"type":"event","name":"AdminChanged","inputs":[{"name":"previousAdmin","type":"address","indexed":false,"internalType":"address"},{"name":"newAdmin","type":"address","indexed":false,"internalType":"address"}],"anonymous":false},{"type":"event","name":"BeaconUpgraded","inputs":[{"name":"beacon","type":"address","indexed":true,"internalType":"address"}],"anonymous":false},{"type":"event","name":"Initialized","inputs":[{"name":"version","type":"uint8","indexed":false,"internalType":"uint8"}],"anonymous":false},{"type":"event","name":"KeeperUpdated","inputs":[{"name":"keeper","type":"address","indexed":true,"internalType":"address"},{"name":"allowed","type":"bool","indexed":false,"internalType":"bool"}],"anonymous":false},{"type":"event","name":"OrderCancelled","inputs":[{"name":"orderId","type":"uint256","indexed":true,"internalType":"uint256"}],"anonymous":false},{"type":"event","name":"OrderCreated","inputs":[{"name":"orderId","type":"uint256","indexed":true,"internalType":"uint256"},{"name":"user","type":"address","indexed":true,"internalType":"address"},{"name":"tokenIn","type":"address","indexed":false,"internalType":"address"},{"name":"tokenOut","type":"address","indexed":false,"internalType":"address"},{"name":"amountIn","type":"uint256","indexed":false,"internalType":"uint256"}],"anonymous":false},{"type":"event","name":"OrderExecuted","inputs":[{"name":"orderId","type":"uint256","indexed":true,"internalType":"uint256"},{"name":"amountOut","type":"uint256","indexed":false,"internalType":"uint256"}],"anonymous":false},{"type":"event","name":"OwnershipTransferred","inputs":[{"name":"previousOwner","type":"address","indexed":true,"internalType":"address"},{"name":"newOwner","type":"address","indexed":true,"internalType":"address"}],"anonymous":false},{"type":"event","name":"Upgraded","inputs":[{"name":"implementation","type":"address","indexed":true,"internalType":"address"}],"anonymous":false},{"type":"error","name":"GasPriceTooHigh","inputs":[{"name":"current","type":"uint256","internalType":"uint256"},{"name":"max","type":"uint256","internalType":"uint256"}]},{"type":"error","name":"NotOrderOwner","inputs":[]},{"type":"error","name":"OrderExpired","inputs":[]},{"type":"error","name":"OrderInactive","inputs":[]},{"type":"error","name":"Unauthorized","inputs":[]}],"bytecode":{"object":"0x60a06040523060805234801561001457600080fd5b506080516120d861004c6000396000818161064701528181610687015281816107260152818161076601526108a501526120d86000f3fe6080604052600436106101095760003560e01c8063856652e911610095578063bc73852e11610064578063bc73852e146102ec578063c4d66de81461030c578063ca9478751461032c578063d1b9e8531461034c578063f2fde38b1461036c57600080fd5b8063856652e9146102445780638da5cb5b1461026457806394f6113414610296578063a85c38ef146102b657600080fd5b80634f1ef286116100dc5780634f1ef286146101ba578063514fcac7146101cd57806352d1902d146101ed57806363c69f0814610202578063715018a61461022f57600080fd5b8063130b38d11461010e5780632a58b330146101415780633659cfe6146101575780633bbd64bc14610179575b600080fd5b34801561011a57600080fd5b5061012e61012936600461196f565b61038c565b6040519081526020015b60405180910390f35b34801561014d57600080fd5b5061012e60fd5481565b34801561016357600080fd5b50610177610172366004611a3a565b61063d565b005b34801561018557600080fd5b506101aa610194366004611a3a565b60ff602081905260009182526040909120541681565b6040519015158152602001610138565b6101776101c8366004611a6b565b61071c565b3480156101d957600080fd5b506101776101e8366004611b2d565b6107ec565b3480156101f957600080fd5b5061012e610898565b34801561020e57600080fd5b5061022261021d366004611a3a565b61094b565b6040516101389190611b46565b34801561023b57600080fd5b506101776109b7565b34801561025057600080fd5b5061012e61025f366004611b8a565b6109cb565b34801561027057600080fd5b506097546001600160a01b03165b6040516001600160a01b039091168152602001610138565b3480156102a257600080fd5b506101776102b1366004611b2d565b6109fc565b3480156102c257600080fd5b506102d66102d1366004611b2d565b610d84565b6040516101389a99989796959493929190611c04565b3480156102f857600080fd5b50610177610307366004611a3a565b610e76565b34801561031857600080fd5b50610177610327366004611a3a565b610ee6565b34801561033857600080fd5b5060fe5461027e906001600160a01b031681565b34801561035857600080fd5b50610177610367366004611c81565b611022565b34801561037857600080fd5b50610177610387366004611a3a565b6110d0565b60004285116103da5760405162461bcd60e51b8152602060048201526015602482015274457870697279206d7573742062652066757475726560581b60448201526064015b60405180910390fd5b600088116104215760405162461bcd60e51b81526020600482015260146024820152730616d6f756e74496e206d757374206265203e20360641b60448201526064016103d1565b60fd805490600061043183611cce565b919050559050604051806101400160405280336001600160a01b031681526020018b6001600160a01b031681526020018a6001600160a01b03168152602001898152602001888152602001878152602001868152602001600115158152602001856001600160a01b0316815260200184848080601f016020809104026020016040519081016040528093929190818152602001838380828437600092018290525093909452505083815260fb6020908152604091829020845181546001600160a01b03199081166001600160a01b039283161783559286015160018301805485169183169190911790559285015160028201805490931690841617909155606084015160038201556080840151600482015560a0840151600582015560c0840151600682015560e0840151600782018054610100808801516001600160a81b0319909216931515610100600160a81b0319169390931794169091029290921790915561012083015190915060088201906105ab9082611d71565b505033600081815260fc60209081526040808320805460018101825590845291909220018490555190915082907fdcb4282d27c4f0f72b550268698af955cf8c6bd36efec7b9a243e500452f86e290610628908e908e908e906001600160a01b039384168152919092166020820152604081019190915260600190565b60405180910390a39998505050505050505050565b6001600160a01b037f00000000000000000000000000000000000000000000000000000000000000001630036106855760405162461bcd60e51b81526004016103d190611e31565b7f00000000000000000000000000000000000000000000000000000000000000006001600160a01b03166106ce60008051602061205c833981519152546001600160a01b031690565b6001600160a01b0316146106f45760405162461bcd60e51b81526004016103d190611e7d565b6106fd81611146565b604080516000808252602082019092526107199183919061114e565b50565b6001600160a01b037f00000000000000000000000000000000000000000000000000000000000000001630036107645760405162461bcd60e51b81526004016103d190611e31565b7f00000000000000000000000000000000000000000000000000000000000000006001600160a01b03166107ad60008051602061205c833981519152546001600160a01b031690565b6001600160a01b0316146107d35760405162461bcd60e51b81526004016103d190611e7d565b6107dc82611146565b6107e88282600161114e565b5050565b600081815260fb60205260409020546001600160a01b0316331461082357604051637b2095ad60e11b815260040160405180910390fd5b600081815260fb602052604090206007015460ff166108555760405163f08c50a160e01b815260040160405180910390fd5b600081815260fb6020526040808220600701805460ff191690555182917f61b9399f2f0f32ca39ce8d7be32caed5ec22fe07a6daba3a467ed479ec60658291a250565b6000306001600160a01b037f000000000000000000000000000000000000000000000000000000000000000016146109385760405162461bcd60e51b815260206004820152603860248201527f555550535570677261646561626c653a206d757374206e6f742062652063616c60448201527f6c6564207468726f7567682064656c656761746563616c6c000000000000000060648201526084016103d1565b5060008051602061205c83398151915290565b6001600160a01b038116600090815260fc60209081526040918290208054835181840281018401909452808452606093928301828280156109ab57602002820191906000526020600020905b815481526020019060010190808311610997575b50505050509050919050565b6109bf6112be565b6109c96000611318565b565b60fc60205281600052604060002081815481106109e757600080fd5b90600052602060002001600091509150505481565b610a0461136a565b33600090815260ff602081905260409091205416610a34576040516282b42960e81b815260040160405180910390fd5b600081815260fb60205260409020600781015460ff16610a675760405163f08c50a160e01b815260040160405180910390fd5b8060060154421115610a8c576040516362b439dd60e11b815260040160405180910390fd5b80600501543a1115610ac0576005810154604051639411833360e01b81523a600482015260248101919091526044016103d1565b60078101805460ff1916905560018101546000906001600160a01b0316610b395760405162461bcd60e51b815260206004820152602760248201527f4e617469766520746f6b656e206f7264657273206e6f7420737570706f7274656044820152666420696e20763160c81b60648201526084016103d1565b815460038301546001840154610b5f926001600160a01b039182169291169030906113c3565b600182015460fe54600384015460405163095ea7b360e01b81526001600160a01b039283166004820152602481019190915291169063095ea7b3906044016020604051808303816000875af1158015610bbc573d6000803e3d6000fd5b505050506040513d601f19601f82011682018060405250810190610be09190611ec9565b5060fe5460018301546002840154600385015460048601546000946001600160a01b039081169463f13545f094889491831693921691610c224261012c611eed565b60078b015460405160e089901b6001600160e01b0319168152610c6096959493929161010090046001600160a01b03169060088e0190600401611f00565b60206040518083038185885af1158015610c7e573d6000803e3d6000fd5b50505050506040513d601f19601f82011682018060405250810190610ca39190611fc8565b600184015460fe5460405163095ea7b360e01b81526001600160a01b03918216600482015260006024820152929350169063095ea7b3906044016020604051808303816000875af1925050508015610d18575060408051601f3d908101601f19168201909252610d1591810190611ec9565b60015b15610d1f57505b82546002840154610d3d916001600160a01b03918216911683611434565b837f9947370f1e808dd40de986fca744d8715d4d7aa575359f77a7bdeeb887f590ea82604051610d6f91815260200190565b60405180910390a2505050610719600160c955565b60fb602052600090815260409020805460018201546002830154600384015460048501546005860154600687015460078801546008890180546001600160a01b03998a169a988a169997881698969795969495939460ff841694610100909404909316929190610df390611ce7565b80601f0160208091040260200160405190810160405280929190818152602001828054610e1f90611ce7565b8015610e6c5780601f10610e4157610100808354040283529160200191610e6c565b820191906000526020600020905b815481529060010190602001808311610e4f57829003601f168201915b505050505090508a565b610e7e6112be565b6001600160a01b038116610ec45760405162461bcd60e51b815260206004820152600d60248201526c696e76616c69642070726f787960981b60448201526064016103d1565b60fe80546001600160a01b0319166001600160a01b0392909216919091179055565b600054610100900460ff1615808015610f065750600054600160ff909116105b80610f205750303b158015610f20575060005460ff166001145b610f835760405162461bcd60e51b815260206004820152602e60248201527f496e697469616c697a61626c653a20636f6e747261637420697320616c72656160448201526d191e481a5b9a5d1a585b1a5e995960921b60648201526084016103d1565b6000805460ff191660011790558015610fa6576000805461ff0019166101001790555b610fae61146b565b610fb661149a565b610fbe6114c9565b60fe80546001600160a01b0319166001600160a01b03841617905580156107e8576000805461ff0019169055604051600181527f7f26b83ff96e1f2b6a682f133852f6798a09c465da95921460cefb38474024989060200160405180910390a15050565b61102a6112be565b6001600160a01b0382166110715760405162461bcd60e51b815260206004820152600e60248201526d34b73b30b634b21035b2b2b832b960911b60448201526064016103d1565b6001600160a01b038216600081815260ff6020908152604091829020805460ff191685151590811790915591519182527f786c9db967bf0c6b16c7c91adae8a8c554b15a57d373fa2059607300f4616c00910160405180910390a25050565b6110d86112be565b6001600160a01b03811661113d5760405162461bcd60e51b815260206004820152602660248201527f4f776e61626c653a206e6577206f776e657220697320746865207a65726f206160448201526564647265737360d01b60648201526084016103d1565b61071981611318565b6107196112be565b7f4910fdfa16fed3260ed0e7147f7cc6da11a60208b5b9406d12a635614ffd91435460ff161561118657611181836114f0565b505050565b826001600160a01b03166352d1902d6040518163ffffffff1660e01b8152600401602060405180830381865afa9250505080156111e0575060408051601f3d908101601f191682019092526111dd91810190611fc8565b60015b6112435760405162461bcd60e51b815260206004820152602e60248201527f45524331393637557067726164653a206e657720696d706c656d656e7461746960448201526d6f6e206973206e6f74205555505360901b60648201526084016103d1565b60008051602061205c83398151915281146112b25760405162461bcd60e51b815260206004820152602960248201527f45524331393637557067726164653a20756e737570706f727465642070726f786044820152681a58589b195555525160ba1b60648201526084016103d1565b5061118183838361158c565b6097546001600160a01b031633146109c95760405162461bcd60e51b815260206004820181905260248201527f4f776e61626c653a2063616c6c6572206973206e6f7420746865206f776e657260448201526064016103d1565b609780546001600160a01b038381166001600160a01b0319831681179093556040519116919082907f8be0079c531659141344cd1fd0a4f28419497f9722a3daafe3b4186f6b6457e090600090a35050565b600260c954036113bc5760405162461bcd60e51b815260206004820152601f60248201527f5265656e7472616e637947756172643a207265656e7472616e742063616c6c0060448201526064016103d1565b600260c955565b6040516001600160a01b038085166024830152831660448201526064810182905261142e9085906323b872dd60e01b906084015b60408051601f198184030181529190526020810180516001600160e01b03166001600160e01b0319909316929092179091526115b1565b50505050565b6040516001600160a01b03831660248201526044810182905261118190849063a9059cbb60e01b906064016113f7565b600160c955565b600054610100900460ff166114925760405162461bcd60e51b81526004016103d190611fe1565b6109c9611686565b600054610100900460ff166114c15760405162461bcd60e51b81526004016103d190611fe1565b6109c96116b6565b600054610100900460ff166109c95760405162461bcd60e51b81526004016103d190611fe1565b6001600160a01b0381163b61155d5760405162461bcd60e51b815260206004820152602d60248201527f455243313936373a206e657720696d706c656d656e746174696f6e206973206e60448201526c1bdd08184818dbdb9d1c9858dd609a1b60648201526084016103d1565b60008051602061205c83398151915280546001600160a01b0319166001600160a01b0392909216919091179055565b611595836116dd565b6000825111806115a25750805b156111815761142e838361171d565b6000611606826040518060400160405280602081526020017f5361666545524332303a206c6f772d6c6576656c2063616c6c206661696c6564815250856001600160a01b031661174b9092919063ffffffff16565b90508051600014806116275750808060200190518101906116279190611ec9565b6111815760405162461bcd60e51b815260206004820152602a60248201527f5361666545524332303a204552433230206f7065726174696f6e20646964206e6044820152691bdd081cdd58d8d9595960b21b60648201526084016103d1565b600054610100900460ff166116ad5760405162461bcd60e51b81526004016103d190611fe1565b6109c933611318565b600054610100900460ff166114645760405162461bcd60e51b81526004016103d190611fe1565b6116e6816114f0565b6040516001600160a01b038216907fbc7cd75a20ee27fd9adebab32041f755214dbc6bffa90cc0225b39da2e5c2d3b90600090a250565b6060611742838360405180606001604052806027815260200161207c60279139611762565b90505b92915050565b606061175a84846000856117da565b949350505050565b6060600080856001600160a01b03168560405161177f919061202c565b600060405180830381855af49150503d80600081146117ba576040519150601f19603f3d011682016040523d82523d6000602084013e6117bf565b606091505b50915091506117d0868383876118b5565b9695505050505050565b60608247101561183b5760405162461bcd60e51b815260206004820152602660248201527f416464726573733a20696e73756666696369656e742062616c616e636520666f6044820152651c8818d85b1b60d21b60648201526084016103d1565b600080866001600160a01b03168587604051611857919061202c565b60006040518083038185875af1925050503d8060008114611894576040519150601f19603f3d011682016040523d82523d6000602084013e611899565b606091505b50915091506118aa878383876118b5565b979650505050505050565b6060831561192457825160000361191d576001600160a01b0385163b61191d5760405162461bcd60e51b815260206004820152601d60248201527f416464726573733a2063616c6c20746f206e6f6e2d636f6e747261637400000060448201526064016103d1565b508161175a565b61175a83838151156119395781518083602001fd5b8060405162461bcd60e51b81526004016103d19190612048565b80356001600160a01b038116811461196a57600080fd5b919050565b60008060008060008060008060006101008a8c03121561198e57600080fd5b6119978a611953565b98506119a560208b01611953565b975060408a0135965060608a0135955060808a0135945060a08a013593506119cf60c08b01611953565b925060e08a013567ffffffffffffffff808211156119ec57600080fd5b818c0191508c601f830112611a0057600080fd5b813581811115611a0f57600080fd5b8d6020828501011115611a2157600080fd5b6020830194508093505050509295985092959850929598565b600060208284031215611a4c57600080fd5b61174282611953565b634e487b7160e01b600052604160045260246000fd5b60008060408385031215611a7e57600080fd5b611a8783611953565b9150602083013567ffffffffffffffff80821115611aa457600080fd5b818501915085601f830112611ab857600080fd5b813581811115611aca57611aca611a55565b604051601f8201601f19908116603f01168101908382118183101715611af257611af2611a55565b81604052828152886020848701011115611b0b57600080fd5b8260208601602083013760006020848301015280955050505050509250929050565b600060208284031215611b3f57600080fd5b5035919050565b6020808252825182820181905260009190848201906040850190845b81811015611b7e57835183529284019291840191600101611b62565b50909695505050505050565b60008060408385031215611b9d57600080fd5b611ba683611953565b946020939093013593505050565b60005b83811015611bcf578181015183820152602001611bb7565b50506000910152565b60008151808452611bf0816020860160208601611bb4565b601f01601f19169290920160200192915050565b600061014060018060a01b03808e168452808d166020850152808c1660408501528a60608501528960808501528860a08501528760c085015286151560e08501528086166101008501525080610120840152611c6281840185611bd8565b9d9c50505050505050505050505050565b801515811461071957600080fd5b60008060408385031215611c9457600080fd5b611c9d83611953565b91506020830135611cad81611c73565b809150509250929050565b634e487b7160e01b600052601160045260246000fd5b600060018201611ce057611ce0611cb8565b5060010190565b600181811c90821680611cfb57607f821691505b602082108103611d1b57634e487b7160e01b600052602260045260246000fd5b50919050565b601f821115611181576000816000526020600020601f850160051c81016020861015611d4a5750805b601f850160051c820191505b81811015611d6957828155600101611d56565b505050505050565b815167ffffffffffffffff811115611d8b57611d8b611a55565b611d9f81611d998454611ce7565b84611d21565b602080601f831160018114611dd45760008415611dbc5750858301515b600019600386901b1c1916600185901b178555611d69565b600085815260208120601f198616915b82811015611e0357888601518255948401946001909101908401611de4565b5085821015611e215787850151600019600388901b60f8161c191681555b5050505050600190811b01905550565b6020808252602c908201527f46756e6374696f6e206d7573742062652063616c6c6564207468726f7567682060408201526b19195b1959d85d1958d85b1b60a21b606082015260800190565b6020808252602c908201527f46756e6374696f6e206d7573742062652063616c6c6564207468726f7567682060408201526b6163746976652070726f787960a01b606082015260800190565b600060208284031215611edb57600080fd5b8151611ee681611c73565b9392505050565b8082018082111561174557611745611cb8565b600060018060a01b03808a1683526020818a16602085015288604085015287606085015286608085015281861660a085015260e060c0850152600091508454611f4881611ce7565b8060e0870152610100600180841660008114611f6b5760018114611f8557611fb4565b60ff1985168984015283151560051b890183019650611fb4565b89600052602060002060005b85811015611fac5781548b8201860152908301908701611f91565b8a0184019750505b50949e9d5050505050505050505050505050565b600060208284031215611fda57600080fd5b5051919050565b6020808252602b908201527f496e697469616c697a61626c653a20636f6e7472616374206973206e6f74206960408201526a6e697469616c697a696e6760a81b606082015260800190565b6000825161203e818460208701611bb4565b9190910192915050565b6020815260006117426020830184611bd856fe360894a13ba1a3210667c828492db98dca3e2076cc3735a920a3ca505d382bbc416464726573733a206c6f772d6c6576656c2064656c65676174652063616c6c206661696c6564a264697066735822122010913b9ba5d93f614954725998ac9bf687b11849c2363007f8fda4d7b94fa98364736f6c63430008180033","linkReferences":{}},"methodIdentifiers":{"cancelOrder(uint256)":"514fcac7","createOrder(address,address,uint256,uint256,uint256,uint256,address,bytes)":"130b38d1","executeOrder(uint256)":"94f61134","executionProxy()":"ca947875","getUserOrders(address)":"63c69f08","initialize(address)":"c4d66de8","keepers(address)":"3bbd64bc","nextOrderId()":"2a58b330","orders(uint256)":"a85c38ef","owner()":"8da5cb5b","proxiableUUID()":"52d1902d","renounceOwnership()":"715018a6","setExecutionProxy(address)":"bc73852e","setKeeper(address,bool)":"d1b9e853","transferOwnership(address)":"f2fde38b","upgradeTo(address)":"3659cfe6","upgradeToAndCall(address,bytes)":"4f1ef286","userOrders(address,uint256)":"856652e9"},"id":45}