{"abi":[{"type":"constructor","inputs":[{"name":"_feeVault","type":"address","internalType":"address"},{"name":"_feeBps","type":"uint256","internalType":"uint256"}],"stateMutability":"nonpayable"},{"type":"receive","stateMutability":"payable"},{"type":"function","name":"MAX_FEE_BPS","inputs":[],"outputs":[{"name":"","type":"uint256","internalType":"uint256"}],"stateMutability":"view"},{"type":"function","name":"MAX_SLIPPAGE_BPS","inputs":[],"outputs":[{"name":"","type":"uint256","internalType":"uint256"}],"stateMutability":"view"},{"type":"function","name":"NATIVE","inputs":[],"outputs":[{"name":"","type":"address","internalType":"address"}],"stateMutability":"view"},{"type":"function","name":"approvedTargets","inputs":[{"name":"","type":"address","internalType":"address"}],"outputs":[{"name":"","type":"bool","internalType":"bool"}],"stateMutability":"view"},{"type":"function","name":"executeSwap","inputs":[{"name":"tokenIn","type":"address","internalType":"address"},{"name":"tokenOut","type":"address","internalType":"address"},{"name":"amountIn","type":"uint256","internalType":"uint256"},{"name":"minAmountOut","type":"uint256","internalType":"uint256"},{"name":"deadline","type":"uint256","internalType":"uint256"},{"name":"aggregatorTarget","type":"address","internalType":"address"},{"name":"aggregatorCalldata","type":"bytes","internalType":"bytes"}],"outputs":[{"name":"amountOut","type":"uint256","internalType":"uint256"}],"stateMutability":"payable"},{"type":"function","name":"feeBps","inputs":[],"outputs":[{"name":"","type":"uint256","internalType":"uint256"}],"stateMutability":"view"},{"type":"function","name":"feeVault","inputs":[],"outputs":[{"name":"","type":"address","internalType":"address"}],"stateMutability":"view"},{"type":"function","name":"owner","inputs":[],"outputs":[{"name":"","type":"address","internalType":"address"}],"stateMutability":"view"},{"type":"function","name":"rescueToken","inputs":[{"name":"token","type":"address","internalType":"address"},{"name":"amount","type":"uint256","internalType":"uint256"}],"outputs":[],"stateMutability":"nonpayable"},{"type":"function","name":"setApprovedTarget","inputs":[{"name":"target","type":"address","internalType":"address"},{"name":"approved","type":"bool","internalType":"bool"}],"outputs":[],"stateMutability":"nonpayable"},{"type":"function","name":"setFeeBps","inputs":[{"name":"newFeeBps","type":"uint256","internalType":"uint256"}],"outputs":[],"stateMutability":"nonpayable"},{"type":"function","name":"setFeeVault","inputs":[{"name":"newVault","type":"address","internalType":"address"}],"outputs":[],"stateMutability":"nonpayable"},{"type":"function","name":"transferOwnership","inputs":[{"name":"newOwner","type":"address","internalType":"address"}],"outputs":[],"stateMutability":"nonpayable"},{"type":"event","name":"FeeUpdated","inputs":[{"name":"oldFeeBps","type":"uint256","indexed":false,"internalType":"uint256"},{"name":"newFeeBps","type":"uint256","indexed":false,"internalType":"uint256"}],"anonymous":false},{"type":"event","name":"OwnershipTransferred","inputs":[{"name":"previousOwner","type":"address","indexed":true,"internalType":"address"},{"name":"newOwner","type":"address","indexed":true,"internalType":"address"}],"anonymous":false},{"type":"event","name":"SwapExecuted","inputs":[{"name":"user","type":"address","indexed":true,"internalType":"address"},{"name":"tokenIn","type":"address","indexed":true,"internalType":"address"},{"name":"tokenOut","type":"address","indexed":true,"internalType":"address"},{"name":"amountIn","type":"uint256","indexed":false,"internalType":"uint256"},{"name":"amountOut","type":"uint256","indexed":false,"internalType":"uint256"},{"name":"aggregator","type":"address","indexed":false,"internalType":"address"},{"name":"feeAmount","type":"uint256","indexed":false,"internalType":"uint256"}],"anonymous":false},{"type":"event","name":"TargetApproved","inputs":[{"name":"target","type":"address","indexed":true,"internalType":"address"},{"name":"approved","type":"bool","indexed":false,"internalType":"bool"}],"anonymous":false},{"type":"error","name":"DeadlineExpired","inputs":[]},{"type":"error","name":"FeeTooHigh","inputs":[{"name":"proposed","type":"uint256","internalType":"uint256"},{"name":"max","type":"uint256","internalType":"uint256"}]},{"type":"error","name":"InvalidAmount","inputs":[]},{"type":"error","name":"NotOwner","inputs":[]},{"type":"error","name":"Reentrant","inputs":[]},{"type":"error","name":"SlippageExceeded","inputs":[{"name":"minRequired","type":"uint256","internalType":"uint256"},{"name":"received","type":"uint256","internalType":"uint256"}]},{"type":"error","name":"TransferFailed","inputs":[]},{"type":"error","name":"UnauthorizedTarget","inputs":[{"name":"target","type":"address","internalType":"address"}]},{"type":"error","name":"ZeroAddress","inputs":[]}],"bytecode":{"object":"0x608060405234801561001057600080fd5b50604051610f90380380610f9083398101604081905261002f916100e7565b6001600160a01b0382166100565760405163d92e233d60e01b815260040160405180910390fd5b6032811115610086576040516373ab893560e11b8152600481018290526032602482015260440160405180910390fd5b60008054336001600160a01b031991821681178355600180549092166001600160a01b0386161790915560028390556040519091907f8be0079c531659141344cd1fd0a4f28419497f9722a3daafe3b4186f6b6457e0908290a35050610121565b600080604083850312156100fa57600080fd5b82516001600160a01b038116811461011157600080fd5b6020939093015192949293505050565b610e60806101306000396000f3fe6080604052600436106100c65760003560e01c8063a0cf0aea1161007f578063d55be8c611610059578063d55be8c61461022a578063e229cd761461023f578063f13545f014610255578063f2fde38b1461026857600080fd5b8063a0cf0aea146101d5578063a591f97f146101ea578063b7f9a7481461020a57600080fd5b806324a9d853146100d257806333f3d628146100fb578063478222c21461011d57806372c27b62146101555780638da5cb5b146101755780639779d1a61461019557600080fd5b366100cd57005b600080fd5b3480156100de57600080fd5b506100e860025481565b6040519081526020015b60405180910390f35b34801561010757600080fd5b5061011b610116366004610be5565b610288565b005b34801561012957600080fd5b5060015461013d906001600160a01b031681565b6040516001600160a01b0390911681526020016100f2565b34801561016157600080fd5b5061011b610170366004610c0f565b6102cf565b34801561018157600080fd5b5060005461013d906001600160a01b031681565b3480156101a157600080fd5b506101c56101b0366004610c28565b60036020526000908152604090205460ff1681565b60405190151581526020016100f2565b3480156101e157600080fd5b5061013d600081565b3480156101f657600080fd5b5061011b610205366004610c28565b61036c565b34801561021657600080fd5b5061011b610225366004610c5b565b6103e0565b34801561023657600080fd5b506100e8603281565b34801561024b57600080fd5b506100e86103e881565b6100e8610263366004610c92565b61046a565b34801561027457600080fd5b5061011b610283366004610c28565b6107bd565b6000546001600160a01b031633146102b3576040516330cd747160e01b815260040160405180910390fd5b6000546102cb9083906001600160a01b03168361086a565b5050565b6000546001600160a01b031633146102fa576040516330cd747160e01b815260040160405180910390fd5b603281111561032b576040516373ab893560e11b815260048101829052603260248201526044015b60405180910390fd5b60025460408051918252602082018390527f528d9479e9f9889a87a3c30c7f7ba537e5e59c4c85a37733b16e57c62df61302910160405180910390a1600255565b6000546001600160a01b03163314610397576040516330cd747160e01b815260040160405180910390fd5b6001600160a01b0381166103be5760405163d92e233d60e01b815260040160405180910390fd5b600180546001600160a01b0319166001600160a01b0392909216919091179055565b6000546001600160a01b0316331461040b576040516330cd747160e01b815260040160405180910390fd5b6001600160a01b038216600081815260036020908152604091829020805460ff191685151590811790915591519182527f1544fe18ad8a1b607a5147fee4bed9273c6c8c53b721318602ef311de4f4c939910160405180910390a25050565b600060045460010361048f5760405163769dd35360e11b815260040160405180910390fd5b60016004556001600160a01b03841660009081526003602052604090205460ff166104d8576040516310d59ca160e21b81526001600160a01b0385166004820152602401610322565b866000036104f95760405163162908e360e11b815260040160405180910390fd5b8442111561051a57604051631ab7da6b60e01b815260040160405180910390fd5b6001600160a01b03891615610540576105358933308a610902565b6105408985896109fa565b600061054b89610ae9565b905060006001600160a01b038b1615610565576000610567565b885b90506000866001600160a01b0316828787604051610586929190610d53565b60006040518083038185875af1925050503d80600081146105c3576040519150601f19603f3d011682016040523d82523d6000602084013e6105c8565b606091505b50509050806105ea576040516312171d8360e31b815260040160405180910390fd5b6001600160a01b038c1615610685576040516370a0823160e01b81523060048201526000906001600160a01b038e16906370a0823190602401602060405180830381865afa158015610640573d6000803e3d6000fd5b505050506040513d601f19601f820116820180604052508101906106649190610d63565b90508015610677576106778d3383610b6f565b6106838d8960006109fa565b505b8261068f8c610ae9565b6106999190610d92565b9350888410156106c6576040516371c4efed60e01b8152600481018a905260248101859052604401610322565b600080600254116106d85760006106f3565b612710600254866106e99190610da5565b6106f39190610dbc565b905060006107018287610d92565b9050811561072157600154610721908e906001600160a01b03168461086a565b61072c8d338361086a565b8c6001600160a01b03168e6001600160a01b0316336001600160a01b03167f15c0f0cd3636d02094a48879a1b3d233ae630d140a0a65aeee9f3f9ba4e709898f858e8860405161079e949392919093845260208401929092526001600160a01b03166040830152606082015260800190565b60405180910390a45050600060045550919a9950505050505050505050565b6000546001600160a01b031633146107e8576040516330cd747160e01b815260040160405180910390fd5b6001600160a01b03811661080f5760405163d92e233d60e01b815260040160405180910390fd5b600080546040516001600160a01b03808516939216917f8be0079c531659141344cd1fd0a4f28419497f9722a3daafe3b4186f6b6457e091a3600080546001600160a01b0319166001600160a01b0392909216919091179055565b6001600160a01b0383166108f2576000826001600160a01b03168260405160006040518083038185875af1925050503d80600081146108c5576040519150601f19603f3d011682016040523d82523d6000602084013e6108ca565b606091505b50509050806108ec576040516312171d8360e31b815260040160405180910390fd5b50505050565b6108fd838383610b6f565b505050565b6040516001600160a01b038481166024830152838116604483015260648201839052600091829187169060840160408051601f198184030181529181526020820180516001600160e01b03166323b872dd60e01b179052516109649190610dde565b6000604051808303816000865af19150503d80600081146109a1576040519150601f19603f3d011682016040523d82523d6000602084013e6109a6565b606091505b50915091508115806109d457508051158015906109d45750808060200190518101906109d29190610e0d565b155b156109f2576040516312171d8360e31b815260040160405180910390fd5b505050505050565b6040516001600160a01b03838116602483015260448201839052600091829186169060640160408051601f198184030181529181526020820180516001600160e01b031663095ea7b360e01b17905251610a549190610dde565b6000604051808303816000865af19150503d8060008114610a91576040519150601f19603f3d011682016040523d82523d6000602084013e610a96565b606091505b5091509150811580610ac45750805115801590610ac4575080806020019051810190610ac29190610e0d565b155b15610ae2576040516312171d8360e31b815260040160405180910390fd5b5050505050565b60006001600160a01b03821615610b67576040516370a0823160e01b81523060048201526001600160a01b038316906370a0823190602401602060405180830381865afa158015610b3e573d6000803e3d6000fd5b505050506040513d601f19601f82011682018060405250810190610b629190610d63565b610b69565b475b92915050565b6040516001600160a01b03838116602483015260448201839052600091829186169060640160408051601f198184030181529181526020820180516001600160e01b031663a9059cbb60e01b17905251610a549190610dde565b80356001600160a01b0381168114610be057600080fd5b919050565b60008060408385031215610bf857600080fd5b610c0183610bc9565b946020939093013593505050565b600060208284031215610c2157600080fd5b5035919050565b600060208284031215610c3a57600080fd5b610c4382610bc9565b9392505050565b8015158114610c5857600080fd5b50565b60008060408385031215610c6e57600080fd5b610c7783610bc9565b91506020830135610c8781610c4a565b809150509250929050565b60008060008060008060008060e0898b031215610cae57600080fd5b610cb789610bc9565b9750610cc560208a01610bc9565b9650604089013595506060890135945060808901359350610ce860a08a01610bc9565b925060c089013567ffffffffffffffff80821115610d0557600080fd5b818b0191508b601f830112610d1957600080fd5b813581811115610d2857600080fd5b8c6020828501011115610d3a57600080fd5b6020830194508093505050509295985092959890939650565b8183823760009101908152919050565b600060208284031215610d7557600080fd5b5051919050565b634e487b7160e01b600052601160045260246000fd5b81810381811115610b6957610b69610d7c565b8082028115828204841417610b6957610b69610d7c565b600082610dd957634e487b7160e01b600052601260045260246000fd5b500490565b6000825160005b81811015610dff5760208186018101518583015201610de5565b506000920191825250919050565b600060208284031215610e1f57600080fd5b8151610c4381610c4a56fea2646970667358221220ec7b47cb158422136201887dfafb65332b9665b09c13302a96863ad20a436ac864736f6c63430008130033","linkReferences":{}},"assembly":"    /* \"src/ExecutionProxyDirect.sol\":669:6403  contract ExecutionProxyDirect {... */\n  mstore(0x40, 0x80)\n    /* \"src/ExecutionProxyDirect.sol\":2021:2355  constructor(address _feeVault, uint256 _feeBps) {... */\n  callvalue\n  dup1\n  iszero\n  tag_1\n  jumpi\n  0x00\n  dup1\n  revert\ntag_1:\n  pop\n  mload(0x40)\n  sub(codesize, bytecodeSize)\n  dup1\n  bytecodeSize\n  dup4\n  codecopy\n  dup2\n  add\n  0x40\n  dup2\n  swap1\n  mstore\n  tag_2\n  swap2\n  tag_3\n  jump\t// in\ntag_2:\n  sub(shl(0xa0, 0x01), 0x01)\n    /* \"src/ExecutionProxyDirect.sol\":2083:2106  _feeVault == address(0) */\n  dup3\n  and\n    /* \"src/ExecutionProxyDirect.sol\":2079:2128  if (_feeVault == address(0)) revert ZeroAddress() */\n  tag_6\n  jumpi\n    /* \"src/ExecutionProxyDirect.sol\":2115:2128  ZeroAddress() */\n  mload(0x40)\n  shl(0xe0, 0xd92e233d)\n  dup2\n  mstore\n  0x04\n  add\n  mload(0x40)\n  dup1\n  swap2\n  sub\n  swap1\n  revert\n    /* \"src/ExecutionProxyDirect.sol\":2079:2128  if (_feeVault == address(0)) revert ZeroAddress() */\ntag_6:\n    /* \"src/ExecutionProxyDirect.sol\":743:745  50 */\n  0x32\n    /* \"src/ExecutionProxyDirect.sol\":2142:2149  _feeBps */\n  dup2\n    /* \"src/ExecutionProxyDirect.sol\":2142:2163  _feeBps > MAX_FEE_BPS */\n  gt\n    /* \"src/ExecutionProxyDirect.sol\":2138:2204  if (_feeBps > MAX_FEE_BPS) revert FeeTooHigh(_feeBps, MAX_FEE_BPS) */\n  iszero\n  tag_7\n  jumpi\n    /* \"src/ExecutionProxyDirect.sol\":2172:2204  FeeTooHigh(_feeBps, MAX_FEE_BPS) */\n  mload(0x40)\n  shl(0xe1, 0x73ab8935)\n  dup2\n  mstore\n  0x04\n  dup2\n  add\n    /* \"#utility.yul\":544:569   */\n  dup3\n  swap1\n  mstore\n    /* \"src/ExecutionProxyDirect.sol\":743:745  50 */\n  0x32\n    /* \"#utility.yul\":585:603   */\n  0x24\n  dup3\n  add\n    /* \"#utility.yul\":578:612   */\n  mstore\n    /* \"#utility.yul\":517:535   */\n  0x44\n  add\n    /* \"src/ExecutionProxyDirect.sol\":2172:2204  FeeTooHigh(_feeBps, MAX_FEE_BPS) */\n  mload(0x40)\n  dup1\n  swap2\n  sub\n  swap1\n  revert\n    /* \"src/ExecutionProxyDirect.sol\":2138:2204  if (_feeBps > MAX_FEE_BPS) revert FeeTooHigh(_feeBps, MAX_FEE_BPS) */\ntag_7:\n    /* \"src/ExecutionProxyDirect.sol\":2215:2220  owner */\n  0x00\n    /* \"src/ExecutionProxyDirect.sol\":2215:2233  owner = msg.sender */\n  dup1\n  sload\n    /* \"src/ExecutionProxyDirect.sol\":2223:2233  msg.sender */\n  caller\n  not(sub(shl(0xa0, 0x01), 0x01))\n    /* \"src/ExecutionProxyDirect.sol\":2215:2233  owner = msg.sender */\n  swap2\n  dup3\n  and\n  dup2\n  or\n  dup4\n  sstore\n  0x01\n    /* \"src/ExecutionProxyDirect.sol\":2243:2263  feeVault = _feeVault */\n  dup1\n  sload\n  swap1\n  swap3\n  and\n  sub(shl(0xa0, 0x01), 0x01)\n  dup7\n  and\n  or\n  swap1\n  swap2\n  sstore\n    /* \"src/ExecutionProxyDirect.sol\":2273:2279  feeBps */\n  0x02\n    /* \"src/ExecutionProxyDirect.sol\":2273:2289  feeBps = _feeBps */\n  dup4\n  swap1\n  sstore\n    /* \"src/ExecutionProxyDirect.sol\":2304:2348  OwnershipTransferred(address(0), msg.sender) */\n  mload(0x40)\n    /* \"src/ExecutionProxyDirect.sol\":2223:2233  msg.sender */\n  swap1\n  swap2\n    /* \"src/ExecutionProxyDirect.sol\":2215:2220  owner */\n  swap1\n    /* \"src/ExecutionProxyDirect.sol\":2304:2348  OwnershipTransferred(address(0), msg.sender) */\n  0x8be0079c531659141344cd1fd0a4f28419497f9722a3daafe3b4186f6b6457e0\n  swap1\n    /* \"src/ExecutionProxyDirect.sol\":2215:2220  owner */\n  dup3\n  swap1\n    /* \"src/ExecutionProxyDirect.sol\":2304:2348  OwnershipTransferred(address(0), msg.sender) */\n  log3\n    /* \"src/ExecutionProxyDirect.sol\":2021:2355  constructor(address _feeVault, uint256 _feeBps) {... */\n  pop\n  pop\n    /* \"src/ExecutionProxyDirect.sol\":669:6403  contract ExecutionProxyDirect {... */\n  jump(tag_11)\n    /* \"#utility.yul\":14:365   */\ntag_3:\n    /* \"#utility.yul\":93:99   */\n  0x00\n    /* \"#utility.yul\":101:107   */\n  dup1\n    /* \"#utility.yul\":154:156   */\n  0x40\n    /* \"#utility.yul\":142:151   */\n  dup4\n    /* \"#utility.yul\":133:140   */\n  dup6\n    /* \"#utility.yul\":129:152   */\n  sub\n    /* \"#utility.yul\":125:157   */\n  slt\n    /* \"#utility.yul\":122:174   */\n  iszero\n  tag_13\n  jumpi\n    /* \"#utility.yul\":170:171   */\n  0x00\n    /* \"#utility.yul\":167:168   */\n  dup1\n    /* \"#utility.yul\":160:172   */\n  revert\n    /* \"#utility.yul\":122:174   */\ntag_13:\n    /* \"#utility.yul\":196:212   */\n  dup3\n  mload\n  sub(shl(0xa0, 0x01), 0x01)\n    /* \"#utility.yul\":241:272   */\n  dup2\n  and\n    /* \"#utility.yul\":231:273   */\n  dup2\n  eq\n    /* \"#utility.yul\":221:291   */\n  tag_14\n  jumpi\n    /* \"#utility.yul\":287:288   */\n  0x00\n    /* \"#utility.yul\":284:285   */\n  dup1\n    /* \"#utility.yul\":277:289   */\n  revert\n    /* \"#utility.yul\":221:291   */\ntag_14:\n    /* \"#utility.yul\":355:357   */\n  0x20\n    /* \"#utility.yul\":340:358   */\n  swap4\n  swap1\n  swap4\n  add\n    /* \"#utility.yul\":334:359   */\n  mload\n    /* \"#utility.yul\":310:315   */\n  swap3\n  swap5\n    /* \"#utility.yul\":334:359   */\n  swap3\n  swap4\n  pop\n  pop\n  pop\n    /* \"#utility.yul\":14:365   */\n  jump\t// out\n    /* \"#utility.yul\":370:618   */\ntag_11:\n    /* \"src/ExecutionProxyDirect.sol\":669:6403  contract ExecutionProxyDirect {... */\n  dataSize(sub_0)\n  dup1\n  dataOffset(sub_0)\n  0x00\n  codecopy\n  0x00\n  return\nstop\n\nsub_0: assembly {\n        /* \"src/ExecutionProxyDirect.sol\":669:6403  contract ExecutionProxyDirect {... */\n      mstore(0x40, 0x80)\n      jumpi(tag_1, lt(calldatasize, 0x04))\n      shr(0xe0, calldataload(0x00))\n      dup1\n      0xa0cf0aea\n      gt\n      tag_16\n      jumpi\n      dup1\n      0xd55be8c6\n      gt\n      tag_17\n      jumpi\n      dup1\n      0xd55be8c6\n      eq\n      tag_12\n      jumpi\n      dup1\n      0xe229cd76\n      eq\n      tag_13\n      jumpi\n      dup1\n      0xf13545f0\n      eq\n      tag_14\n      jumpi\n      dup1\n      0xf2fde38b\n      eq\n      tag_15\n      jumpi\n      0x00\n      dup1\n      revert\n    tag_17:\n      dup1\n      0xa0cf0aea\n      eq\n      tag_9\n      jumpi\n      dup1\n      0xa591f97f\n      eq\n      tag_10\n      jumpi\n      dup1\n      0xb7f9a748\n      eq\n      tag_11\n      jumpi\n      0x00\n      dup1\n      revert\n    tag_16:\n      dup1\n      0x24a9d853\n      eq\n      tag_3\n      jumpi\n      dup1\n      0x33f3d628\n      eq\n      tag_4\n      jumpi\n      dup1\n      0x478222c2\n      eq\n      tag_5\n      jumpi\n      dup1\n      0x72c27b62\n      eq\n      tag_6\n      jumpi\n      dup1\n      0x8da5cb5b\n      eq\n      tag_7\n      jumpi\n      dup1\n      0x9779d1a6\n      eq\n      tag_8\n      jumpi\n      0x00\n      dup1\n      revert\n    tag_1:\n      jumpi(tag_2, calldatasize)\n      stop\n    tag_2:\n      0x00\n      dup1\n      revert\n        /* \"src/ExecutionProxyDirect.sol\":909:930  uint256 public feeBps */\n    tag_3:\n      callvalue\n      dup1\n      iszero\n      tag_20\n      jumpi\n      0x00\n      dup1\n      revert\n    tag_20:\n      pop\n      tag_21\n      sload(0x02)\n      dup2\n      jump\n    tag_21:\n      mload(0x40)\n        /* \"#utility.yul\":160:185   */\n      swap1\n      dup2\n      mstore\n        /* \"#utility.yul\":148:150   */\n      0x20\n        /* \"#utility.yul\":133:151   */\n      add\n        /* \"src/ExecutionProxyDirect.sol\":909:930  uint256 public feeBps */\n    tag_23:\n      mload(0x40)\n      dup1\n      swap2\n      sub\n      swap1\n      return\n        /* \"src/ExecutionProxyDirect.sol\":4877:4996  function rescueToken(address token, uint256 amount) external onlyOwner {... */\n    tag_4:\n      callvalue\n      dup1\n      iszero\n      tag_25\n      jumpi\n      0x00\n      dup1\n      revert\n    tag_25:\n      pop\n      tag_26\n      tag_27\n      calldatasize\n      0x04\n      tag_28\n      jump\t// in\n    tag_27:\n      tag_29\n      jump\t// in\n    tag_26:\n      stop\n        /* \"src/ExecutionProxyDirect.sol\":880:903  address public feeVault */\n    tag_5:\n      callvalue\n      dup1\n      iszero\n      tag_30\n      jumpi\n      0x00\n      dup1\n      revert\n    tag_30:\n      pop\n      sload(0x01)\n      tag_31\n      swap1\n      sub(shl(0xa0, 0x01), 0x01)\n      and\n      dup2\n      jump\n    tag_31:\n      mload(0x40)\n      sub(shl(0xa0, 0x01), 0x01)\n        /* \"#utility.yul\":797:829   */\n      swap1\n      swap2\n      and\n        /* \"#utility.yul\":779:830   */\n      dup2\n      mstore\n        /* \"#utility.yul\":767:769   */\n      0x20\n        /* \"#utility.yul\":752:770   */\n      add\n        /* \"src/ExecutionProxyDirect.sol\":880:903  address public feeVault */\n      tag_23\n        /* \"#utility.yul\":633:836   */\n      jump\n        /* \"src/ExecutionProxyDirect.sol\":4284:4500  function setFeeBps(uint256 newFeeBps) external onlyOwner {... */\n    tag_6:\n      callvalue\n      dup1\n      iszero\n      tag_35\n      jumpi\n      0x00\n      dup1\n      revert\n    tag_35:\n      pop\n      tag_26\n      tag_37\n      calldatasize\n      0x04\n      tag_38\n      jump\t// in\n    tag_37:\n      tag_39\n      jump\t// in\n        /* \"src/ExecutionProxyDirect.sol\":854:874  address public owner */\n    tag_7:\n      callvalue\n      dup1\n      iszero\n      tag_40\n      jumpi\n      0x00\n      dup1\n      revert\n    tag_40:\n      pop\n      sload(0x00)\n      tag_31\n      swap1\n      sub(shl(0xa0, 0x01), 0x01)\n      and\n      dup2\n      jump\n        /* \"src/ExecutionProxyDirect.sol\":937:984  mapping(address => bool) public approvedTargets */\n    tag_8:\n      callvalue\n      dup1\n      iszero\n      tag_44\n      jumpi\n      0x00\n      dup1\n      revert\n    tag_44:\n      pop\n      tag_45\n      tag_46\n      calldatasize\n      0x04\n      tag_47\n      jump\t// in\n    tag_46:\n      mstore(0x20, 0x03)\n      0x00\n      swap1\n      dup2\n      mstore\n      0x40\n      swap1\n      keccak256\n      sload\n      0xff\n      and\n      dup2\n      jump\n    tag_45:\n      mload(0x40)\n        /* \"#utility.yul\":1382:1396   */\n      swap1\n      iszero\n        /* \"#utility.yul\":1375:1397   */\n      iszero\n        /* \"#utility.yul\":1357:1398   */\n      dup2\n      mstore\n        /* \"#utility.yul\":1345:1347   */\n      0x20\n        /* \"#utility.yul\":1330:1348   */\n      add\n        /* \"src/ExecutionProxyDirect.sol\":937:984  mapping(address => bool) public approvedTargets */\n      tag_23\n        /* \"#utility.yul\":1217:1404   */\n      jump\n        /* \"src/ExecutionProxyDirect.sol\":804:847  address public constant NATIVE = address(0) */\n    tag_9:\n      callvalue\n      dup1\n      iszero\n      tag_51\n      jumpi\n      0x00\n      dup1\n      revert\n    tag_51:\n      pop\n      tag_31\n        /* \"src/ExecutionProxyDirect.sol\":845:846  0 */\n      0x00\n        /* \"src/ExecutionProxyDirect.sol\":804:847  address public constant NATIVE = address(0) */\n      dup2\n      jump\n        /* \"src/ExecutionProxyDirect.sol\":4506:4658  function setFeeVault(address newVault) external onlyOwner {... */\n    tag_10:\n      callvalue\n      dup1\n      iszero\n      tag_55\n      jumpi\n      0x00\n      dup1\n      revert\n    tag_55:\n      pop\n      tag_26\n      tag_57\n      calldatasize\n      0x04\n      tag_47\n      jump\t// in\n    tag_57:\n      tag_58\n      jump\t// in\n        /* \"src/ExecutionProxyDirect.sol\":4103:4278  function setApprovedTarget(address target, bool approved) external onlyOwner {... */\n    tag_11:\n      callvalue\n      dup1\n      iszero\n      tag_59\n      jumpi\n      0x00\n      dup1\n      revert\n    tag_59:\n      pop\n      tag_26\n      tag_61\n      calldatasize\n      0x04\n      tag_62\n      jump\t// in\n    tag_61:\n      tag_63\n      jump\t// in\n        /* \"src/ExecutionProxyDirect.sol\":705:745  uint256 public constant MAX_FEE_BPS = 50 */\n    tag_12:\n      callvalue\n      dup1\n      iszero\n      tag_64\n      jumpi\n      0x00\n      dup1\n      revert\n    tag_64:\n      pop\n      tag_21\n        /* \"src/ExecutionProxyDirect.sol\":743:745  50 */\n      0x32\n        /* \"src/ExecutionProxyDirect.sol\":705:745  uint256 public constant MAX_FEE_BPS = 50 */\n      dup2\n      jump\n        /* \"src/ExecutionProxyDirect.sol\":751:798  uint256 public constant MAX_SLIPPAGE_BPS = 1000 */\n    tag_13:\n      callvalue\n      dup1\n      iszero\n      tag_68\n      jumpi\n      0x00\n      dup1\n      revert\n    tag_68:\n      pop\n      tag_21\n        /* \"src/ExecutionProxyDirect.sol\":794:798  1000 */\n      0x03e8\n        /* \"src/ExecutionProxyDirect.sol\":751:798  uint256 public constant MAX_SLIPPAGE_BPS = 1000 */\n      dup2\n      jump\n        /* \"src/ExecutionProxyDirect.sol\":2361:4097  function executeSwap(... */\n    tag_14:\n      tag_21\n      tag_73\n      calldatasize\n      0x04\n      tag_74\n      jump\t// in\n    tag_73:\n      tag_75\n      jump\t// in\n        /* \"src/ExecutionProxyDirect.sol\":4664:4871  function transferOwnership(address newOwner) external onlyOwner {... */\n    tag_15:\n      callvalue\n      dup1\n      iszero\n      tag_77\n      jumpi\n      0x00\n      dup1\n      revert\n    tag_77:\n      pop\n      tag_26\n      tag_79\n      calldatasize\n      0x04\n      tag_47\n      jump\t// in\n    tag_79:\n      tag_80\n      jump\t// in\n        /* \"src/ExecutionProxyDirect.sol\":4877:4996  function rescueToken(address token, uint256 amount) external onlyOwner {... */\n    tag_29:\n        /* \"src/ExecutionProxyDirect.sol\":1840:1845  owner */\n      and(sub(shl(0xa0, 0x01), 0x01), sload(0x00))\n        /* \"src/ExecutionProxyDirect.sol\":1826:1836  msg.sender */\n      caller\n        /* \"src/ExecutionProxyDirect.sol\":1826:1845  msg.sender != owner */\n      eq\n        /* \"src/ExecutionProxyDirect.sol\":1822:1864  if (msg.sender != owner) revert NotOwner() */\n      tag_82\n      jumpi\n        /* \"src/ExecutionProxyDirect.sol\":1854:1864  NotOwner() */\n      mload(0x40)\n      shl(0xe0, 0x30cd7471)\n      dup2\n      mstore\n      0x04\n      add\n      mload(0x40)\n      dup1\n      swap2\n      sub\n      swap1\n      revert\n        /* \"src/ExecutionProxyDirect.sol\":1822:1864  if (msg.sender != owner) revert NotOwner() */\n    tag_82:\n        /* \"src/ExecutionProxyDirect.sol\":4975:4980  owner */\n      sload(0x00)\n        /* \"src/ExecutionProxyDirect.sol\":4958:4989  _transfer(token, owner, amount) */\n      tag_84\n      swap1\n        /* \"src/ExecutionProxyDirect.sol\":4968:4973  token */\n      dup4\n      swap1\n      sub(shl(0xa0, 0x01), 0x01)\n        /* \"src/ExecutionProxyDirect.sol\":4975:4980  owner */\n      and\n        /* \"src/ExecutionProxyDirect.sol\":4982:4988  amount */\n      dup4\n        /* \"src/ExecutionProxyDirect.sol\":4958:4967  _transfer */\n      tag_85\n        /* \"src/ExecutionProxyDirect.sol\":4958:4989  _transfer(token, owner, amount) */\n      jump\t// in\n    tag_84:\n        /* \"src/ExecutionProxyDirect.sol\":4877:4996  function rescueToken(address token, uint256 amount) external onlyOwner {... */\n      pop\n      pop\n      jump\t// out\n        /* \"src/ExecutionProxyDirect.sol\":4284:4500  function setFeeBps(uint256 newFeeBps) external onlyOwner {... */\n    tag_39:\n        /* \"src/ExecutionProxyDirect.sol\":1840:1845  owner */\n      and(sub(shl(0xa0, 0x01), 0x01), sload(0x00))\n        /* \"src/ExecutionProxyDirect.sol\":1826:1836  msg.sender */\n      caller\n        /* \"src/ExecutionProxyDirect.sol\":1826:1845  msg.sender != owner */\n      eq\n        /* \"src/ExecutionProxyDirect.sol\":1822:1864  if (msg.sender != owner) revert NotOwner() */\n      tag_87\n      jumpi\n        /* \"src/ExecutionProxyDirect.sol\":1854:1864  NotOwner() */\n      mload(0x40)\n      shl(0xe0, 0x30cd7471)\n      dup2\n      mstore\n      0x04\n      add\n      mload(0x40)\n      dup1\n      swap2\n      sub\n      swap1\n      revert\n        /* \"src/ExecutionProxyDirect.sol\":1822:1864  if (msg.sender != owner) revert NotOwner() */\n    tag_87:\n        /* \"src/ExecutionProxyDirect.sol\":743:745  50 */\n      0x32\n        /* \"src/ExecutionProxyDirect.sol\":4355:4364  newFeeBps */\n      dup2\n        /* \"src/ExecutionProxyDirect.sol\":4355:4378  newFeeBps > MAX_FEE_BPS */\n      gt\n        /* \"src/ExecutionProxyDirect.sol\":4351:4421  if (newFeeBps > MAX_FEE_BPS) revert FeeTooHigh(newFeeBps, MAX_FEE_BPS) */\n      iszero\n      tag_89\n      jumpi\n        /* \"src/ExecutionProxyDirect.sol\":4387:4421  FeeTooHigh(newFeeBps, MAX_FEE_BPS) */\n      mload(0x40)\n      shl(0xe1, 0x73ab8935)\n      dup2\n      mstore\n      0x04\n      dup2\n      add\n        /* \"#utility.yul\":3052:3077   */\n      dup3\n      swap1\n      mstore\n        /* \"src/ExecutionProxyDirect.sol\":743:745  50 */\n      0x32\n        /* \"#utility.yul\":3093:3111   */\n      0x24\n      dup3\n      add\n        /* \"#utility.yul\":3086:3120   */\n      mstore\n        /* \"#utility.yul\":3025:3043   */\n      0x44\n      add\n        /* \"src/ExecutionProxyDirect.sol\":4387:4421  FeeTooHigh(newFeeBps, MAX_FEE_BPS) */\n    tag_90:\n      mload(0x40)\n      dup1\n      swap2\n      sub\n      swap1\n      revert\n        /* \"src/ExecutionProxyDirect.sol\":4351:4421  if (newFeeBps > MAX_FEE_BPS) revert FeeTooHigh(newFeeBps, MAX_FEE_BPS) */\n    tag_89:\n        /* \"src/ExecutionProxyDirect.sol\":4447:4453  feeBps */\n      sload(0x02)\n        /* \"src/ExecutionProxyDirect.sol\":4436:4465  FeeUpdated(feeBps, newFeeBps) */\n      0x40\n      dup1\n      mload\n        /* \"#utility.yul\":3052:3077   */\n      swap2\n      dup3\n      mstore\n        /* \"#utility.yul\":3108:3110   */\n      0x20\n        /* \"#utility.yul\":3093:3111   */\n      dup3\n      add\n        /* \"#utility.yul\":3086:3120   */\n      dup4\n      swap1\n      mstore\n        /* \"src/ExecutionProxyDirect.sol\":4436:4465  FeeUpdated(feeBps, newFeeBps) */\n      0x528d9479e9f9889a87a3c30c7f7ba537e5e59c4c85a37733b16e57c62df61302\n      swap2\n        /* \"#utility.yul\":3025:3043   */\n      add\n        /* \"src/ExecutionProxyDirect.sol\":4436:4465  FeeUpdated(feeBps, newFeeBps) */\n      mload(0x40)\n      dup1\n      swap2\n      sub\n      swap1\n      log1\n        /* \"src/ExecutionProxyDirect.sol\":4475:4481  feeBps */\n      0x02\n        /* \"src/ExecutionProxyDirect.sol\":4475:4493  feeBps = newFeeBps */\n      sstore\n        /* \"src/ExecutionProxyDirect.sol\":4284:4500  function setFeeBps(uint256 newFeeBps) external onlyOwner {... */\n      jump\t// out\n        /* \"src/ExecutionProxyDirect.sol\":4506:4658  function setFeeVault(address newVault) external onlyOwner {... */\n    tag_58:\n        /* \"src/ExecutionProxyDirect.sol\":1840:1845  owner */\n      and(sub(shl(0xa0, 0x01), 0x01), sload(0x00))\n        /* \"src/ExecutionProxyDirect.sol\":1826:1836  msg.sender */\n      caller\n        /* \"src/ExecutionProxyDirect.sol\":1826:1845  msg.sender != owner */\n      eq\n        /* \"src/ExecutionProxyDirect.sol\":1822:1864  if (msg.sender != owner) revert NotOwner() */\n      tag_94\n      jumpi\n        /* \"src/ExecutionProxyDirect.sol\":1854:1864  NotOwner() */\n      mload(0x40)\n      shl(0xe0, 0x30cd7471)\n      dup2\n      mstore\n      0x04\n      add\n      mload(0x40)\n      dup1\n      swap2\n      sub\n      swap1\n      revert\n        /* \"src/ExecutionProxyDirect.sol\":1822:1864  if (msg.sender != owner) revert NotOwner() */\n    tag_94:\n      sub(shl(0xa0, 0x01), 0x01)\n        /* \"src/ExecutionProxyDirect.sol\":4578:4600  newVault == address(0) */\n      dup2\n      and\n        /* \"src/ExecutionProxyDirect.sol\":4574:4622  if (newVault == address(0)) revert ZeroAddress() */\n      tag_96\n      jumpi\n        /* \"src/ExecutionProxyDirect.sol\":4609:4622  ZeroAddress() */\n      mload(0x40)\n      shl(0xe0, 0xd92e233d)\n      dup2\n      mstore\n      0x04\n      add\n      mload(0x40)\n      dup1\n      swap2\n      sub\n      swap1\n      revert\n        /* \"src/ExecutionProxyDirect.sol\":4574:4622  if (newVault == address(0)) revert ZeroAddress() */\n    tag_96:\n        /* \"src/ExecutionProxyDirect.sol\":4632:4640  feeVault */\n      0x01\n        /* \"src/ExecutionProxyDirect.sol\":4632:4651  feeVault = newVault */\n      dup1\n      sload\n      not(sub(shl(0xa0, 0x01), 0x01))\n      and\n      sub(shl(0xa0, 0x01), 0x01)\n      swap3\n      swap1\n      swap3\n      and\n      swap2\n      swap1\n      swap2\n      or\n      swap1\n      sstore\n        /* \"src/ExecutionProxyDirect.sol\":4506:4658  function setFeeVault(address newVault) external onlyOwner {... */\n      jump\t// out\n        /* \"src/ExecutionProxyDirect.sol\":4103:4278  function setApprovedTarget(address target, bool approved) external onlyOwner {... */\n    tag_63:\n        /* \"src/ExecutionProxyDirect.sol\":1840:1845  owner */\n      and(sub(shl(0xa0, 0x01), 0x01), sload(0x00))\n        /* \"src/ExecutionProxyDirect.sol\":1826:1836  msg.sender */\n      caller\n        /* \"src/ExecutionProxyDirect.sol\":1826:1845  msg.sender != owner */\n      eq\n        /* \"src/ExecutionProxyDirect.sol\":1822:1864  if (msg.sender != owner) revert NotOwner() */\n      tag_98\n      jumpi\n        /* \"src/ExecutionProxyDirect.sol\":1854:1864  NotOwner() */\n      mload(0x40)\n      shl(0xe0, 0x30cd7471)\n      dup2\n      mstore\n      0x04\n      add\n      mload(0x40)\n      dup1\n      swap2\n      sub\n      swap1\n      revert\n        /* \"src/ExecutionProxyDirect.sol\":1822:1864  if (msg.sender != owner) revert NotOwner() */\n    tag_98:\n      sub(shl(0xa0, 0x01), 0x01)\n        /* \"src/ExecutionProxyDirect.sol\":4190:4213  approvedTargets[target] */\n      dup3\n      and\n      0x00\n      dup2\n      dup2\n      mstore\n        /* \"src/ExecutionProxyDirect.sol\":4190:4205  approvedTargets */\n      0x03\n        /* \"src/ExecutionProxyDirect.sol\":4190:4213  approvedTargets[target] */\n      0x20\n      swap1\n      dup2\n      mstore\n      0x40\n      swap2\n      dup3\n      swap1\n      keccak256\n        /* \"src/ExecutionProxyDirect.sol\":4190:4224  approvedTargets[target] = approved */\n      dup1\n      sload\n      not(0xff)\n      and\n      dup6\n      iszero\n      iszero\n      swap1\n      dup2\n      or\n      swap1\n      swap2\n      sstore\n        /* \"src/ExecutionProxyDirect.sol\":4239:4271  TargetApproved(target, approved) */\n      swap2\n      mload\n        /* \"#utility.yul\":1357:1398   */\n      swap2\n      dup3\n      mstore\n        /* \"src/ExecutionProxyDirect.sol\":4239:4271  TargetApproved(target, approved) */\n      0x1544fe18ad8a1b607a5147fee4bed9273c6c8c53b721318602ef311de4f4c939\n      swap2\n        /* \"#utility.yul\":1330:1348   */\n      add\n        /* \"src/ExecutionProxyDirect.sol\":4239:4271  TargetApproved(target, approved) */\n      mload(0x40)\n      dup1\n      swap2\n      sub\n      swap1\n      log2\n        /* \"src/ExecutionProxyDirect.sol\":4103:4278  function setApprovedTarget(address target, bool approved) external onlyOwner {... */\n      pop\n      pop\n      jump\t// out\n        /* \"src/ExecutionProxyDirect.sol\":2361:4097  function executeSwap(... */\n    tag_75:\n        /* \"src/ExecutionProxyDirect.sol\":2637:2654  uint256 amountOut */\n      0x00\n        /* \"src/ExecutionProxyDirect.sol\":1926:1932  locked */\n      sload(0x04)\n        /* \"src/ExecutionProxyDirect.sol\":1936:1937  1 */\n      0x01\n        /* \"src/ExecutionProxyDirect.sol\":1926:1937  locked == 1 */\n      sub\n        /* \"src/ExecutionProxyDirect.sol\":1922:1957  if (locked == 1) revert Reentrant() */\n      tag_102\n      jumpi\n        /* \"src/ExecutionProxyDirect.sol\":1946:1957  Reentrant() */\n      mload(0x40)\n      shl(0xe1, 0x769dd353)\n      dup2\n      mstore\n      0x04\n      add\n      mload(0x40)\n      dup1\n      swap2\n      sub\n      swap1\n      revert\n        /* \"src/ExecutionProxyDirect.sol\":1922:1957  if (locked == 1) revert Reentrant() */\n    tag_102:\n        /* \"src/ExecutionProxyDirect.sol\":1976:1977  1 */\n      0x01\n        /* \"src/ExecutionProxyDirect.sol\":1967:1973  locked */\n      0x04\n        /* \"src/ExecutionProxyDirect.sol\":1967:1977  locked = 1 */\n      sstore\n      sub(shl(0xa0, 0x01), 0x01)\n        /* \"src/ExecutionProxyDirect.sol\":2671:2704  approvedTargets[aggregatorTarget] */\n      dup5\n      and\n      0x00\n      swap1\n      dup2\n      mstore\n        /* \"src/ExecutionProxyDirect.sol\":2671:2686  approvedTargets */\n      0x03\n        /* \"src/ExecutionProxyDirect.sol\":2671:2704  approvedTargets[aggregatorTarget] */\n      0x20\n      mstore\n      0x40\n      swap1\n      keccak256\n      sload\n      0xff\n      and\n        /* \"src/ExecutionProxyDirect.sol\":2666:2749  if (!approvedTargets[aggregatorTarget]) revert UnauthorizedTarget(aggregatorTarget) */\n      tag_104\n      jumpi\n        /* \"src/ExecutionProxyDirect.sol\":2713:2749  UnauthorizedTarget(aggregatorTarget) */\n      mload(0x40)\n      shl(0xe2, 0x10d59ca1)\n      dup2\n      mstore\n      sub(shl(0xa0, 0x01), 0x01)\n        /* \"#utility.yul\":797:829   */\n      dup6\n      and\n        /* \"src/ExecutionProxyDirect.sol\":2713:2749  UnauthorizedTarget(aggregatorTarget) */\n      0x04\n      dup3\n      add\n        /* \"#utility.yul\":779:830   */\n      mstore\n        /* \"#utility.yul\":752:770   */\n      0x24\n      add\n        /* \"src/ExecutionProxyDirect.sol\":2713:2749  UnauthorizedTarget(aggregatorTarget) */\n      tag_90\n        /* \"#utility.yul\":633:836   */\n      jump\n        /* \"src/ExecutionProxyDirect.sol\":2666:2749  if (!approvedTargets[aggregatorTarget]) revert UnauthorizedTarget(aggregatorTarget) */\n    tag_104:\n        /* \"src/ExecutionProxyDirect.sol\":2763:2771  amountIn */\n      dup7\n        /* \"src/ExecutionProxyDirect.sol\":2775:2776  0 */\n      0x00\n        /* \"src/ExecutionProxyDirect.sol\":2763:2776  amountIn == 0 */\n      sub\n        /* \"src/ExecutionProxyDirect.sol\":2759:2800  if (amountIn == 0) revert InvalidAmount() */\n      tag_106\n      jumpi\n        /* \"src/ExecutionProxyDirect.sol\":2785:2800  InvalidAmount() */\n      mload(0x40)\n      shl(0xe1, 0x162908e3)\n      dup2\n      mstore\n      0x04\n      add\n      mload(0x40)\n      dup1\n      swap2\n      sub\n      swap1\n      revert\n        /* \"src/ExecutionProxyDirect.sol\":2759:2800  if (amountIn == 0) revert InvalidAmount() */\n    tag_106:\n        /* \"src/ExecutionProxyDirect.sol\":2832:2840  deadline */\n      dup5\n        /* \"src/ExecutionProxyDirect.sol\":2814:2829  block.timestamp */\n      timestamp\n        /* \"src/ExecutionProxyDirect.sol\":2814:2840  block.timestamp > deadline */\n      gt\n        /* \"src/ExecutionProxyDirect.sol\":2810:2866  if (block.timestamp > deadline) revert DeadlineExpired() */\n      iszero\n      tag_107\n      jumpi\n        /* \"src/ExecutionProxyDirect.sol\":2849:2866  DeadlineExpired() */\n      mload(0x40)\n      shl(0xe0, 0x1ab7da6b)\n      dup2\n      mstore\n      0x04\n      add\n      mload(0x40)\n      dup1\n      swap2\n      sub\n      swap1\n      revert\n        /* \"src/ExecutionProxyDirect.sol\":2810:2866  if (block.timestamp > deadline) revert DeadlineExpired() */\n    tag_107:\n      sub(shl(0xa0, 0x01), 0x01)\n        /* \"src/ExecutionProxyDirect.sol\":2881:2898  tokenIn != NATIVE */\n      dup10\n      and\n      iszero\n        /* \"src/ExecutionProxyDirect.sol\":2877:3051  if (tokenIn != NATIVE) {... */\n      tag_111\n      jumpi\n        /* \"src/ExecutionProxyDirect.sol\":2914:2977  _safeTransferFrom(tokenIn, msg.sender, address(this), amountIn) */\n      tag_109\n        /* \"src/ExecutionProxyDirect.sol\":2932:2939  tokenIn */\n      dup10\n        /* \"src/ExecutionProxyDirect.sol\":2941:2951  msg.sender */\n      caller\n        /* \"src/ExecutionProxyDirect.sol\":2961:2965  this */\n      address\n        /* \"src/ExecutionProxyDirect.sol\":2968:2976  amountIn */\n      dup11\n        /* \"src/ExecutionProxyDirect.sol\":2914:2931  _safeTransferFrom */\n      tag_110\n        /* \"src/ExecutionProxyDirect.sol\":2914:2977  _safeTransferFrom(tokenIn, msg.sender, address(this), amountIn) */\n      jump\t// in\n    tag_109:\n        /* \"src/ExecutionProxyDirect.sol\":2991:3040  _safeApprove(tokenIn, aggregatorTarget, amountIn) */\n      tag_111\n        /* \"src/ExecutionProxyDirect.sol\":3004:3011  tokenIn */\n      dup10\n        /* \"src/ExecutionProxyDirect.sol\":3013:3029  aggregatorTarget */\n      dup6\n        /* \"src/ExecutionProxyDirect.sol\":3031:3039  amountIn */\n      dup10\n        /* \"src/ExecutionProxyDirect.sol\":2991:3003  _safeApprove */\n      tag_112\n        /* \"src/ExecutionProxyDirect.sol\":2991:3040  _safeApprove(tokenIn, aggregatorTarget, amountIn) */\n      jump\t// in\n    tag_111:\n        /* \"src/ExecutionProxyDirect.sol\":3061:3082  uint256 balanceBefore */\n      0x00\n        /* \"src/ExecutionProxyDirect.sol\":3085:3105  _balanceOf(tokenOut) */\n      tag_113\n        /* \"src/ExecutionProxyDirect.sol\":3096:3104  tokenOut */\n      dup10\n        /* \"src/ExecutionProxyDirect.sol\":3085:3095  _balanceOf */\n      tag_114\n        /* \"src/ExecutionProxyDirect.sol\":3085:3105  _balanceOf(tokenOut) */\n      jump\t// in\n    tag_113:\n        /* \"src/ExecutionProxyDirect.sol\":3061:3105  uint256 balanceBefore = _balanceOf(tokenOut) */\n      swap1\n      pop\n        /* \"src/ExecutionProxyDirect.sol\":3115:3134  uint256 nativeValue */\n      0x00\n      sub(shl(0xa0, 0x01), 0x01)\n        /* \"src/ExecutionProxyDirect.sol\":3137:3154  tokenIn == NATIVE */\n      dup12\n      and\n      iszero\n        /* \"src/ExecutionProxyDirect.sol\":3137:3169  tokenIn == NATIVE ? amountIn : 0 */\n      tag_115\n      jumpi\n        /* \"src/ExecutionProxyDirect.sol\":3168:3169  0 */\n      0x00\n        /* \"src/ExecutionProxyDirect.sol\":3137:3169  tokenIn == NATIVE ? amountIn : 0 */\n      jump(tag_116)\n    tag_115:\n        /* \"src/ExecutionProxyDirect.sol\":3157:3165  amountIn */\n      dup9\n        /* \"src/ExecutionProxyDirect.sol\":3137:3169  tokenIn == NATIVE ? amountIn : 0 */\n    tag_116:\n        /* \"src/ExecutionProxyDirect.sol\":3115:3169  uint256 nativeValue = tokenIn == NATIVE ? amountIn : 0 */\n      swap1\n      pop\n        /* \"src/ExecutionProxyDirect.sol\":3181:3193  bool success */\n      0x00\n        /* \"src/ExecutionProxyDirect.sol\":3198:3214  aggregatorTarget */\n      dup7\n      sub(shl(0xa0, 0x01), 0x01)\n        /* \"src/ExecutionProxyDirect.sol\":3198:3219  aggregatorTarget.call */\n      and\n        /* \"src/ExecutionProxyDirect.sol\":3227:3238  nativeValue */\n      dup3\n        /* \"src/ExecutionProxyDirect.sol\":3240:3258  aggregatorCalldata */\n      dup8\n      dup8\n        /* \"src/ExecutionProxyDirect.sol\":3198:3259  aggregatorTarget.call{value: nativeValue}(aggregatorCalldata) */\n      mload(0x40)\n      tag_117\n      swap3\n      swap2\n      swap1\n      tag_118\n      jump\t// in\n    tag_117:\n      0x00\n      mload(0x40)\n      dup1\n      dup4\n      sub\n      dup2\n      dup6\n      dup8\n      gas\n      call\n      swap3\n      pop\n      pop\n      pop\n      returndatasize\n      dup1\n      0x00\n      dup2\n      eq\n      tag_121\n      jumpi\n      mload(0x40)\n      swap2\n      pop\n      and(add(returndatasize, 0x3f), not(0x1f))\n      dup3\n      add\n      0x40\n      mstore\n      returndatasize\n      dup3\n      mstore\n      returndatasize\n      0x00\n      0x20\n      dup5\n      add\n      returndatacopy\n      jump(tag_120)\n    tag_121:\n      0x60\n      swap2\n      pop\n    tag_120:\n      pop\n        /* \"src/ExecutionProxyDirect.sol\":3180:3259  (bool success,) = aggregatorTarget.call{value: nativeValue}(aggregatorCalldata) */\n      pop\n      swap1\n      pop\n        /* \"src/ExecutionProxyDirect.sol\":3274:3281  success */\n      dup1\n        /* \"src/ExecutionProxyDirect.sol\":3269:3306  if (!success) revert TransferFailed() */\n      tag_122\n      jumpi\n        /* \"src/ExecutionProxyDirect.sol\":3290:3306  TransferFailed() */\n      mload(0x40)\n      shl(0xe3, 0x12171d83)\n      dup2\n      mstore\n      0x04\n      add\n      mload(0x40)\n      dup1\n      swap2\n      sub\n      swap1\n      revert\n        /* \"src/ExecutionProxyDirect.sol\":3269:3306  if (!success) revert TransferFailed() */\n    tag_122:\n      sub(shl(0xa0, 0x01), 0x01)\n        /* \"src/ExecutionProxyDirect.sol\":3321:3338  tokenIn != NATIVE */\n      dup13\n      and\n      iszero\n        /* \"src/ExecutionProxyDirect.sol\":3317:3612  if (tokenIn != NATIVE) {... */\n      tag_123\n      jumpi\n        /* \"src/ExecutionProxyDirect.sol\":3379:3425  IERC20Direct(tokenIn).balanceOf(address(this)) */\n      mload(0x40)\n      shl(0xe0, 0x70a08231)\n      dup2\n      mstore\n        /* \"src/ExecutionProxyDirect.sol\":3419:3423  this */\n      address\n        /* \"src/ExecutionProxyDirect.sol\":3379:3425  IERC20Direct(tokenIn).balanceOf(address(this)) */\n      0x04\n      dup3\n      add\n        /* \"#utility.yul\":779:830   */\n      mstore\n        /* \"src/ExecutionProxyDirect.sol\":3354:3376  uint256 leftoverAmount */\n      0x00\n      swap1\n      sub(shl(0xa0, 0x01), 0x01)\n        /* \"src/ExecutionProxyDirect.sol\":3379:3410  IERC20Direct(tokenIn).balanceOf */\n      dup15\n      and\n      swap1\n      0x70a08231\n      swap1\n        /* \"#utility.yul\":752:770   */\n      0x24\n      add\n        /* \"src/ExecutionProxyDirect.sol\":3379:3425  IERC20Direct(tokenIn).balanceOf(address(this)) */\n      0x20\n      mload(0x40)\n      dup1\n      dup4\n      sub\n      dup2\n      dup7\n      gas\n      staticcall\n      iszero\n      dup1\n      iszero\n      tag_126\n      jumpi\n      returndatasize\n      0x00\n      dup1\n      returndatacopy\n      revert(0x00, returndatasize)\n    tag_126:\n      pop\n      pop\n      pop\n      pop\n      mload(0x40)\n      returndatasize\n      not(0x1f)\n      0x1f\n      dup3\n      add\n      and\n      dup3\n      add\n      dup1\n      0x40\n      mstore\n      pop\n      dup2\n      add\n      swap1\n      tag_127\n      swap2\n      swap1\n      tag_128\n      jump\t// in\n    tag_127:\n        /* \"src/ExecutionProxyDirect.sol\":3354:3425  uint256 leftoverAmount = IERC20Direct(tokenIn).balanceOf(address(this)) */\n      swap1\n      pop\n        /* \"src/ExecutionProxyDirect.sol\":3443:3461  leftoverAmount > 0 */\n      dup1\n      iszero\n        /* \"src/ExecutionProxyDirect.sol\":3439:3546  if (leftoverAmount > 0) {... */\n      tag_130\n      jumpi\n        /* \"src/ExecutionProxyDirect.sol\":3481:3531  _safeTransfer(tokenIn, msg.sender, leftoverAmount) */\n      tag_130\n        /* \"src/ExecutionProxyDirect.sol\":3495:3502  tokenIn */\n      dup14\n        /* \"src/ExecutionProxyDirect.sol\":3504:3514  msg.sender */\n      caller\n        /* \"src/ExecutionProxyDirect.sol\":3516:3530  leftoverAmount */\n      dup4\n        /* \"src/ExecutionProxyDirect.sol\":3481:3494  _safeTransfer */\n      tag_131\n        /* \"src/ExecutionProxyDirect.sol\":3481:3531  _safeTransfer(tokenIn, msg.sender, leftoverAmount) */\n      jump\t// in\n    tag_130:\n        /* \"src/ExecutionProxyDirect.sol\":3559:3601  _safeApprove(tokenIn, aggregatorTarget, 0) */\n      tag_132\n        /* \"src/ExecutionProxyDirect.sol\":3572:3579  tokenIn */\n      dup14\n        /* \"src/ExecutionProxyDirect.sol\":3581:3597  aggregatorTarget */\n      dup10\n        /* \"src/ExecutionProxyDirect.sol\":3599:3600  0 */\n      0x00\n        /* \"src/ExecutionProxyDirect.sol\":3559:3571  _safeApprove */\n      tag_112\n        /* \"src/ExecutionProxyDirect.sol\":3559:3601  _safeApprove(tokenIn, aggregatorTarget, 0) */\n      jump\t// in\n    tag_132:\n        /* \"src/ExecutionProxyDirect.sol\":3340:3612  {... */\n      pop\n        /* \"src/ExecutionProxyDirect.sol\":3317:3612  if (tokenIn != NATIVE) {... */\n    tag_123:\n        /* \"src/ExecutionProxyDirect.sol\":3657:3670  balanceBefore */\n      dup3\n        /* \"src/ExecutionProxyDirect.sol\":3634:3654  _balanceOf(tokenOut) */\n      tag_133\n        /* \"src/ExecutionProxyDirect.sol\":3645:3653  tokenOut */\n      dup13\n        /* \"src/ExecutionProxyDirect.sol\":3634:3644  _balanceOf */\n      tag_114\n        /* \"src/ExecutionProxyDirect.sol\":3634:3654  _balanceOf(tokenOut) */\n      jump\t// in\n    tag_133:\n        /* \"src/ExecutionProxyDirect.sol\":3634:3670  _balanceOf(tokenOut) - balanceBefore */\n      tag_134\n      swap2\n      swap1\n      tag_135\n      jump\t// in\n    tag_134:\n        /* \"src/ExecutionProxyDirect.sol\":3622:3670  amountOut = _balanceOf(tokenOut) - balanceBefore */\n      swap4\n      pop\n        /* \"src/ExecutionProxyDirect.sol\":3696:3708  minAmountOut */\n      dup9\n        /* \"src/ExecutionProxyDirect.sol\":3684:3693  amountOut */\n      dup5\n        /* \"src/ExecutionProxyDirect.sol\":3684:3708  amountOut < minAmountOut */\n      lt\n        /* \"src/ExecutionProxyDirect.sol\":3680:3758  if (amountOut < minAmountOut) revert SlippageExceeded(minAmountOut, amountOut) */\n      iszero\n      tag_136\n      jumpi\n        /* \"src/ExecutionProxyDirect.sol\":3717:3758  SlippageExceeded(minAmountOut, amountOut) */\n      mload(0x40)\n      shl(0xe0, 0x71c4efed)\n      dup2\n      mstore\n      0x04\n      dup2\n      add\n        /* \"#utility.yul\":3052:3077   */\n      dup11\n      swap1\n      mstore\n        /* \"#utility.yul\":3093:3111   */\n      0x24\n      dup2\n      add\n        /* \"#utility.yul\":3086:3120   */\n      dup6\n      swap1\n      mstore\n        /* \"#utility.yul\":3025:3043   */\n      0x44\n      add\n        /* \"src/ExecutionProxyDirect.sol\":3717:3758  SlippageExceeded(minAmountOut, amountOut) */\n      tag_90\n        /* \"#utility.yul\":2878:3126   */\n      jump\n        /* \"src/ExecutionProxyDirect.sol\":3680:3758  if (amountOut < minAmountOut) revert SlippageExceeded(minAmountOut, amountOut) */\n    tag_136:\n        /* \"src/ExecutionProxyDirect.sol\":3769:3780  uint256 fee */\n      0x00\n        /* \"src/ExecutionProxyDirect.sol\":3792:3793  0 */\n      dup1\n        /* \"src/ExecutionProxyDirect.sol\":3783:3789  feeBps */\n      sload(0x02)\n        /* \"src/ExecutionProxyDirect.sol\":3783:3793  feeBps > 0 */\n      gt\n        /* \"src/ExecutionProxyDirect.sol\":3783:3829  feeBps > 0 ? (amountOut * feeBps) / 10_000 : 0 */\n      tag_138\n      jumpi\n        /* \"src/ExecutionProxyDirect.sol\":3828:3829  0 */\n      0x00\n        /* \"src/ExecutionProxyDirect.sol\":3783:3829  feeBps > 0 ? (amountOut * feeBps) / 10_000 : 0 */\n      jump(tag_142)\n    tag_138:\n        /* \"src/ExecutionProxyDirect.sol\":3819:3825  10_000 */\n      0x2710\n        /* \"src/ExecutionProxyDirect.sol\":3809:3815  feeBps */\n      sload(0x02)\n        /* \"src/ExecutionProxyDirect.sol\":3797:3806  amountOut */\n      dup7\n        /* \"src/ExecutionProxyDirect.sol\":3797:3815  amountOut * feeBps */\n      tag_140\n      swap2\n      swap1\n      tag_141\n      jump\t// in\n    tag_140:\n        /* \"src/ExecutionProxyDirect.sol\":3796:3825  (amountOut * feeBps) / 10_000 */\n      tag_142\n      swap2\n      swap1\n      tag_143\n      jump\t// in\n    tag_142:\n        /* \"src/ExecutionProxyDirect.sol\":3769:3829  uint256 fee = feeBps > 0 ? (amountOut * feeBps) / 10_000 : 0 */\n      swap1\n      pop\n        /* \"src/ExecutionProxyDirect.sol\":3839:3857  uint256 userAmount */\n      0x00\n        /* \"src/ExecutionProxyDirect.sol\":3860:3875  amountOut - fee */\n      tag_144\n        /* \"src/ExecutionProxyDirect.sol\":3769:3829  uint256 fee = feeBps > 0 ? (amountOut * feeBps) / 10_000 : 0 */\n      dup3\n        /* \"src/ExecutionProxyDirect.sol\":3860:3869  amountOut */\n      dup8\n        /* \"src/ExecutionProxyDirect.sol\":3860:3875  amountOut - fee */\n      tag_135\n      jump\t// in\n    tag_144:\n        /* \"src/ExecutionProxyDirect.sol\":3839:3875  uint256 userAmount = amountOut - fee */\n      swap1\n      pop\n        /* \"src/ExecutionProxyDirect.sol\":3890:3897  fee > 0 */\n      dup2\n      iszero\n        /* \"src/ExecutionProxyDirect.sol\":3886:3933  if (fee > 0) _transfer(tokenOut, feeVault, fee) */\n      tag_146\n      jumpi\n        /* \"src/ExecutionProxyDirect.sol\":3919:3927  feeVault */\n      sload(0x01)\n        /* \"src/ExecutionProxyDirect.sol\":3899:3933  _transfer(tokenOut, feeVault, fee) */\n      tag_146\n      swap1\n        /* \"src/ExecutionProxyDirect.sol\":3909:3917  tokenOut */\n      dup15\n      swap1\n      sub(shl(0xa0, 0x01), 0x01)\n        /* \"src/ExecutionProxyDirect.sol\":3919:3927  feeVault */\n      and\n        /* \"src/ExecutionProxyDirect.sol\":3929:3932  fee */\n      dup5\n        /* \"src/ExecutionProxyDirect.sol\":3899:3908  _transfer */\n      tag_85\n        /* \"src/ExecutionProxyDirect.sol\":3899:3933  _transfer(tokenOut, feeVault, fee) */\n      jump\t// in\n    tag_146:\n        /* \"src/ExecutionProxyDirect.sol\":3943:3986  _transfer(tokenOut, msg.sender, userAmount) */\n      tag_147\n        /* \"src/ExecutionProxyDirect.sol\":3953:3961  tokenOut */\n      dup14\n        /* \"src/ExecutionProxyDirect.sol\":3963:3973  msg.sender */\n      caller\n        /* \"src/ExecutionProxyDirect.sol\":3975:3985  userAmount */\n      dup4\n        /* \"src/ExecutionProxyDirect.sol\":3943:3952  _transfer */\n      tag_85\n        /* \"src/ExecutionProxyDirect.sol\":3943:3986  _transfer(tokenOut, msg.sender, userAmount) */\n      jump\t// in\n    tag_147:\n        /* \"src/ExecutionProxyDirect.sol\":4036:4044  tokenOut */\n      dup13\n      sub(shl(0xa0, 0x01), 0x01)\n        /* \"src/ExecutionProxyDirect.sol\":4002:4090  SwapExecuted(msg.sender, tokenIn, tokenOut, amountIn, userAmount, aggregatorTarget, fee) */\n      and\n        /* \"src/ExecutionProxyDirect.sol\":4027:4034  tokenIn */\n      dup15\n      sub(shl(0xa0, 0x01), 0x01)\n        /* \"src/ExecutionProxyDirect.sol\":4002:4090  SwapExecuted(msg.sender, tokenIn, tokenOut, amountIn, userAmount, aggregatorTarget, fee) */\n      and\n        /* \"src/ExecutionProxyDirect.sol\":4015:4025  msg.sender */\n      caller\n      sub(shl(0xa0, 0x01), 0x01)\n        /* \"src/ExecutionProxyDirect.sol\":4002:4090  SwapExecuted(msg.sender, tokenIn, tokenOut, amountIn, userAmount, aggregatorTarget, fee) */\n      and\n      0x15c0f0cd3636d02094a48879a1b3d233ae630d140a0a65aeee9f3f9ba4e70989\n        /* \"src/ExecutionProxyDirect.sol\":4046:4054  amountIn */\n      dup16\n        /* \"src/ExecutionProxyDirect.sol\":4056:4066  userAmount */\n      dup6\n        /* \"src/ExecutionProxyDirect.sol\":4068:4084  aggregatorTarget */\n      dup15\n        /* \"src/ExecutionProxyDirect.sol\":4086:4089  fee */\n      dup9\n        /* \"src/ExecutionProxyDirect.sol\":4002:4090  SwapExecuted(msg.sender, tokenIn, tokenOut, amountIn, userAmount, aggregatorTarget, fee) */\n      mload(0x40)\n      tag_148\n      swap5\n      swap4\n      swap3\n      swap2\n      swap1\n        /* \"#utility.yul\":4487:4512   */\n      swap4\n      dup5\n      mstore\n        /* \"#utility.yul\":4543:4545   */\n      0x20\n        /* \"#utility.yul\":4528:4546   */\n      dup5\n      add\n        /* \"#utility.yul\":4521:4555   */\n      swap3\n      swap1\n      swap3\n      mstore\n      sub(shl(0xa0, 0x01), 0x01)\n        /* \"#utility.yul\":4591:4623   */\n      and\n        /* \"#utility.yul\":4586:4588   */\n      0x40\n        /* \"#utility.yul\":4571:4589   */\n      dup4\n      add\n        /* \"#utility.yul\":4564:4624   */\n      mstore\n        /* \"#utility.yul\":4655:4657   */\n      0x60\n        /* \"#utility.yul\":4640:4658   */\n      dup3\n      add\n        /* \"#utility.yul\":4633:4667   */\n      mstore\n        /* \"#utility.yul\":4474:4477   */\n      0x80\n        /* \"#utility.yul\":4459:4478   */\n      add\n      swap1\n        /* \"#utility.yul\":4256:4673   */\n      jump\n        /* \"src/ExecutionProxyDirect.sol\":4002:4090  SwapExecuted(msg.sender, tokenIn, tokenOut, amountIn, userAmount, aggregatorTarget, fee) */\n    tag_148:\n      mload(0x40)\n      dup1\n      swap2\n      sub\n      swap1\n      log4\n      pop\n      pop\n        /* \"src/ExecutionProxyDirect.sol\":2007:2008  0 */\n      0x00\n        /* \"src/ExecutionProxyDirect.sol\":1998:2004  locked */\n      0x04\n        /* \"src/ExecutionProxyDirect.sol\":1998:2008  locked = 0 */\n      sstore\n      pop\n        /* \"src/ExecutionProxyDirect.sol\":2361:4097  function executeSwap(... */\n      swap2\n      swap11\n      swap10\n      pop\n      pop\n      pop\n      pop\n      pop\n      pop\n      pop\n      pop\n      pop\n      pop\n      jump\t// out\n        /* \"src/ExecutionProxyDirect.sol\":4664:4871  function transferOwnership(address newOwner) external onlyOwner {... */\n    tag_80:\n        /* \"src/ExecutionProxyDirect.sol\":1840:1845  owner */\n      and(sub(shl(0xa0, 0x01), 0x01), sload(0x00))\n        /* \"src/ExecutionProxyDirect.sol\":1826:1836  msg.sender */\n      caller\n        /* \"src/ExecutionProxyDirect.sol\":1826:1845  msg.sender != owner */\n      eq\n        /* \"src/ExecutionProxyDirect.sol\":1822:1864  if (msg.sender != owner) revert NotOwner() */\n      tag_151\n      jumpi\n        /* \"src/ExecutionProxyDirect.sol\":1854:1864  NotOwner() */\n      mload(0x40)\n      shl(0xe0, 0x30cd7471)\n      dup2\n      mstore\n      0x04\n      add\n      mload(0x40)\n      dup1\n      swap2\n      sub\n      swap1\n      revert\n        /* \"src/ExecutionProxyDirect.sol\":1822:1864  if (msg.sender != owner) revert NotOwner() */\n    tag_151:\n      sub(shl(0xa0, 0x01), 0x01)\n        /* \"src/ExecutionProxyDirect.sol\":4742:4764  newOwner == address(0) */\n      dup2\n      and\n        /* \"src/ExecutionProxyDirect.sol\":4738:4786  if (newOwner == address(0)) revert ZeroAddress() */\n      tag_153\n      jumpi\n        /* \"src/ExecutionProxyDirect.sol\":4773:4786  ZeroAddress() */\n      mload(0x40)\n      shl(0xe0, 0xd92e233d)\n      dup2\n      mstore\n      0x04\n      add\n      mload(0x40)\n      dup1\n      swap2\n      sub\n      swap1\n      revert\n        /* \"src/ExecutionProxyDirect.sol\":4738:4786  if (newOwner == address(0)) revert ZeroAddress() */\n    tag_153:\n        /* \"src/ExecutionProxyDirect.sol\":4822:4827  owner */\n      0x00\n      dup1\n      sload\n        /* \"src/ExecutionProxyDirect.sol\":4801:4838  OwnershipTransferred(owner, newOwner) */\n      mload(0x40)\n      sub(shl(0xa0, 0x01), 0x01)\n      dup1\n      dup6\n      and\n      swap4\n        /* \"src/ExecutionProxyDirect.sol\":4822:4827  owner */\n      swap3\n      and\n      swap2\n        /* \"src/ExecutionProxyDirect.sol\":4801:4838  OwnershipTransferred(owner, newOwner) */\n      0x8be0079c531659141344cd1fd0a4f28419497f9722a3daafe3b4186f6b6457e0\n      swap2\n      log3\n        /* \"src/ExecutionProxyDirect.sol\":4848:4853  owner */\n      0x00\n        /* \"src/ExecutionProxyDirect.sol\":4848:4864  owner = newOwner */\n      dup1\n      sload\n      not(sub(shl(0xa0, 0x01), 0x01))\n      and\n      sub(shl(0xa0, 0x01), 0x01)\n      swap3\n      swap1\n      swap3\n      and\n      swap2\n      swap1\n      swap2\n      or\n      swap1\n      sstore\n        /* \"src/ExecutionProxyDirect.sol\":4664:4871  function transferOwnership(address newOwner) external onlyOwner {... */\n      jump\t// out\n        /* \"src/ExecutionProxyDirect.sol\":5185:5475  function _transfer(address token, address to, uint256 amount) internal {... */\n    tag_85:\n      sub(shl(0xa0, 0x01), 0x01)\n        /* \"src/ExecutionProxyDirect.sol\":5270:5285  token == NATIVE */\n      dup4\n      and\n        /* \"src/ExecutionProxyDirect.sol\":5266:5469  if (token == NATIVE) {... */\n      tag_155\n      jumpi\n        /* \"src/ExecutionProxyDirect.sol\":5302:5309  bool ok */\n      0x00\n        /* \"src/ExecutionProxyDirect.sol\":5322:5324  to */\n      dup3\n      sub(shl(0xa0, 0x01), 0x01)\n        /* \"src/ExecutionProxyDirect.sol\":5314:5330  payable(to).call */\n      and\n        /* \"src/ExecutionProxyDirect.sol\":5338:5344  amount */\n      dup3\n        /* \"src/ExecutionProxyDirect.sol\":5314:5349  payable(to).call{value: amount}(\"\") */\n      mload(0x40)\n      0x00\n      mload(0x40)\n      dup1\n      dup4\n      sub\n      dup2\n      dup6\n      dup8\n      gas\n      call\n      swap3\n      pop\n      pop\n      pop\n      returndatasize\n      dup1\n      0x00\n      dup2\n      eq\n      tag_160\n      jumpi\n      mload(0x40)\n      swap2\n      pop\n      and(add(returndatasize, 0x3f), not(0x1f))\n      dup3\n      add\n      0x40\n      mstore\n      returndatasize\n      dup3\n      mstore\n      returndatasize\n      0x00\n      0x20\n      dup5\n      add\n      returndatacopy\n      jump(tag_159)\n    tag_160:\n      0x60\n      swap2\n      pop\n    tag_159:\n      pop\n        /* \"src/ExecutionProxyDirect.sol\":5301:5349  (bool ok,) = payable(to).call{value: amount}(\"\") */\n      pop\n      swap1\n      pop\n        /* \"src/ExecutionProxyDirect.sol\":5368:5370  ok */\n      dup1\n        /* \"src/ExecutionProxyDirect.sol\":5363:5395  if (!ok) revert TransferFailed() */\n      tag_161\n      jumpi\n        /* \"src/ExecutionProxyDirect.sol\":5379:5395  TransferFailed() */\n      mload(0x40)\n      shl(0xe3, 0x12171d83)\n      dup2\n      mstore\n      0x04\n      add\n      mload(0x40)\n      dup1\n      swap2\n      sub\n      swap1\n      revert\n        /* \"src/ExecutionProxyDirect.sol\":5363:5395  if (!ok) revert TransferFailed() */\n    tag_161:\n        /* \"src/ExecutionProxyDirect.sol\":5287:5406  {... */\n      pop\n        /* \"src/ExecutionProxyDirect.sol\":5185:5475  function _transfer(address token, address to, uint256 amount) internal {... */\n      pop\n      pop\n      pop\n      jump\t// out\n        /* \"src/ExecutionProxyDirect.sol\":5266:5469  if (token == NATIVE) {... */\n    tag_155:\n        /* \"src/ExecutionProxyDirect.sol\":5426:5458  _safeTransfer(token, to, amount) */\n      tag_163\n        /* \"src/ExecutionProxyDirect.sol\":5440:5445  token */\n      dup4\n        /* \"src/ExecutionProxyDirect.sol\":5447:5449  to */\n      dup4\n        /* \"src/ExecutionProxyDirect.sol\":5451:5457  amount */\n      dup4\n        /* \"src/ExecutionProxyDirect.sol\":5426:5439  _safeTransfer */\n      tag_131\n        /* \"src/ExecutionProxyDirect.sol\":5426:5458  _safeTransfer(token, to, amount) */\n      jump\t// in\n    tag_163:\n        /* \"src/ExecutionProxyDirect.sol\":5185:5475  function _transfer(address token, address to, uint256 amount) internal {... */\n      pop\n      pop\n      pop\n      jump\t// out\n        /* \"src/ExecutionProxyDirect.sol\":5766:6073  function _safeTransferFrom(address token, address from, address to, uint256 amount) internal {... */\n    tag_110:\n        /* \"src/ExecutionProxyDirect.sol\":5911:5972  abi.encodeCall(IERC20Direct.transferFrom, (from, to, amount)) */\n      mload(0x40)\n      sub(shl(0xa0, 0x01), 0x01)\n        /* \"#utility.yul\":5146:5161   */\n      dup5\n      dup2\n      and\n        /* \"src/ExecutionProxyDirect.sol\":5911:5972  abi.encodeCall(IERC20Direct.transferFrom, (from, to, amount)) */\n      0x24\n      dup4\n      add\n        /* \"#utility.yul\":5128:5162   */\n      mstore\n        /* \"#utility.yul\":5198:5213   */\n      dup4\n      dup2\n      and\n        /* \"#utility.yul\":5178:5196   */\n      0x44\n      dup4\n      add\n        /* \"#utility.yul\":5171:5214   */\n      mstore\n        /* \"#utility.yul\":5230:5248   */\n      0x64\n      dup3\n      add\n        /* \"#utility.yul\":5223:5257   */\n      dup4\n      swap1\n      mstore\n        /* \"src/ExecutionProxyDirect.sol\":5870:5877  bool ok */\n      0x00\n      swap2\n      dup3\n      swap2\n        /* \"src/ExecutionProxyDirect.sol\":5900:5910  token.call */\n      dup8\n      and\n      swap1\n        /* \"#utility.yul\":5063:5081   */\n      0x84\n      add\n        /* \"src/ExecutionProxyDirect.sol\":5911:5972  abi.encodeCall(IERC20Direct.transferFrom, (from, to, amount)) */\n      0x40\n      dup1\n      mload\n      not(0x1f)\n      dup2\n      dup5\n      sub\n      add\n      dup2\n      mstore\n      swap2\n      dup2\n      mstore\n      0x20\n      dup3\n      add\n      dup1\n      mload\n      sub(shl(0xe0, 0x01), 0x01)\n      and\n      shl(0xe0, 0x23b872dd)\n      or\n      swap1\n      mstore\n        /* \"src/ExecutionProxyDirect.sol\":5900:5973  token.call(abi.encodeCall(IERC20Direct.transferFrom, (from, to, amount))) */\n      mload\n      tag_167\n      swap2\n        /* \"src/ExecutionProxyDirect.sol\":5911:5972  abi.encodeCall(IERC20Direct.transferFrom, (from, to, amount)) */\n      swap1\n        /* \"src/ExecutionProxyDirect.sol\":5900:5973  token.call(abi.encodeCall(IERC20Direct.transferFrom, (from, to, amount))) */\n      tag_168\n      jump\t// in\n    tag_167:\n      0x00\n      mload(0x40)\n      dup1\n      dup4\n      sub\n      dup2\n      0x00\n      dup7\n      gas\n      call\n      swap2\n      pop\n      pop\n      returndatasize\n      dup1\n      0x00\n      dup2\n      eq\n      tag_171\n      jumpi\n      mload(0x40)\n      swap2\n      pop\n      and(add(returndatasize, 0x3f), not(0x1f))\n      dup3\n      add\n      0x40\n      mstore\n      returndatasize\n      dup3\n      mstore\n      returndatasize\n      0x00\n      0x20\n      dup5\n      add\n      returndatacopy\n      jump(tag_170)\n    tag_171:\n      0x60\n      swap2\n      pop\n    tag_170:\n      pop\n        /* \"src/ExecutionProxyDirect.sol\":5869:5973  (bool ok, bytes memory data) = token.call(abi.encodeCall(IERC20Direct.transferFrom, (from, to, amount))) */\n      swap2\n      pop\n      swap2\n      pop\n        /* \"src/ExecutionProxyDirect.sol\":5988:5990  ok */\n      dup2\n        /* \"src/ExecutionProxyDirect.sol\":5987:5990  !ok */\n      iszero\n        /* \"src/ExecutionProxyDirect.sol\":5987:6041  !ok || (data.length != 0 && !abi.decode(data, (bool))) */\n      dup1\n      tag_173\n      jumpi\n      pop\n        /* \"src/ExecutionProxyDirect.sol\":5995:6006  data.length */\n      dup1\n      mload\n        /* \"src/ExecutionProxyDirect.sol\":5995:6011  data.length != 0 */\n      iszero\n      dup1\n      iszero\n      swap1\n        /* \"src/ExecutionProxyDirect.sol\":5995:6040  data.length != 0 && !abi.decode(data, (bool)) */\n      tag_173\n      jumpi\n      pop\n        /* \"src/ExecutionProxyDirect.sol\":6027:6031  data */\n      dup1\n        /* \"src/ExecutionProxyDirect.sol\":6016:6040  abi.decode(data, (bool)) */\n      dup1\n      0x20\n      add\n      swap1\n      mload\n      dup2\n      add\n      swap1\n      tag_174\n      swap2\n      swap1\n      tag_175\n      jump\t// in\n    tag_174:\n        /* \"src/ExecutionProxyDirect.sol\":6015:6040  !abi.decode(data, (bool)) */\n      iszero\n        /* \"src/ExecutionProxyDirect.sol\":5995:6040  data.length != 0 && !abi.decode(data, (bool)) */\n    tag_173:\n        /* \"src/ExecutionProxyDirect.sol\":5983:6066  if (!ok || (data.length != 0 && !abi.decode(data, (bool)))) revert TransferFailed() */\n      iszero\n      tag_176\n      jumpi\n        /* \"src/ExecutionProxyDirect.sol\":6050:6066  TransferFailed() */\n      mload(0x40)\n      shl(0xe3, 0x12171d83)\n      dup2\n      mstore\n      0x04\n      add\n      mload(0x40)\n      dup1\n      swap2\n      sub\n      swap1\n      revert\n        /* \"src/ExecutionProxyDirect.sol\":5983:6066  if (!ok || (data.length != 0 && !abi.decode(data, (bool)))) revert TransferFailed() */\n    tag_176:\n        /* \"src/ExecutionProxyDirect.sol\":5859:6073  {... */\n      pop\n      pop\n        /* \"src/ExecutionProxyDirect.sol\":5766:6073  function _safeTransferFrom(address token, address from, address to, uint256 amount) internal {... */\n      pop\n      pop\n      pop\n      pop\n      jump\t// out\n        /* \"src/ExecutionProxyDirect.sol\":6079:6366  function _safeApprove(address token, address spender, uint256 amount) internal {... */\n    tag_112:\n        /* \"src/ExecutionProxyDirect.sol\":6210:6265  abi.encodeCall(IERC20Direct.approve, (spender, amount)) */\n      mload(0x40)\n      sub(shl(0xa0, 0x01), 0x01)\n        /* \"#utility.yul\":6127:6159   */\n      dup4\n      dup2\n      and\n        /* \"src/ExecutionProxyDirect.sol\":6210:6265  abi.encodeCall(IERC20Direct.approve, (spender, amount)) */\n      0x24\n      dup4\n      add\n        /* \"#utility.yul\":6109:6160   */\n      mstore\n        /* \"#utility.yul\":6176:6194   */\n      0x44\n      dup3\n      add\n        /* \"#utility.yul\":6169:6203   */\n      dup4\n      swap1\n      mstore\n        /* \"src/ExecutionProxyDirect.sol\":6169:6176  bool ok */\n      0x00\n      swap2\n      dup3\n      swap2\n        /* \"src/ExecutionProxyDirect.sol\":6199:6209  token.call */\n      dup7\n      and\n      swap1\n        /* \"#utility.yul\":6082:6100   */\n      0x64\n      add\n        /* \"src/ExecutionProxyDirect.sol\":6210:6265  abi.encodeCall(IERC20Direct.approve, (spender, amount)) */\n      0x40\n      dup1\n      mload\n      not(0x1f)\n      dup2\n      dup5\n      sub\n      add\n      dup2\n      mstore\n      swap2\n      dup2\n      mstore\n      0x20\n      dup3\n      add\n      dup1\n      mload\n      sub(shl(0xe0, 0x01), 0x01)\n      and\n      shl(0xe0, 0x095ea7b3)\n      or\n      swap1\n      mstore\n        /* \"src/ExecutionProxyDirect.sol\":6199:6266  token.call(abi.encodeCall(IERC20Direct.approve, (spender, amount))) */\n      mload\n      tag_180\n      swap2\n        /* \"src/ExecutionProxyDirect.sol\":6210:6265  abi.encodeCall(IERC20Direct.approve, (spender, amount)) */\n      swap1\n        /* \"src/ExecutionProxyDirect.sol\":6199:6266  token.call(abi.encodeCall(IERC20Direct.approve, (spender, amount))) */\n      tag_168\n      jump\t// in\n    tag_180:\n      0x00\n      mload(0x40)\n      dup1\n      dup4\n      sub\n      dup2\n      0x00\n      dup7\n      gas\n      call\n      swap2\n      pop\n      pop\n      returndatasize\n      dup1\n      0x00\n      dup2\n      eq\n      tag_183\n      jumpi\n      mload(0x40)\n      swap2\n      pop\n      and(add(returndatasize, 0x3f), not(0x1f))\n      dup3\n      add\n      0x40\n      mstore\n      returndatasize\n      dup3\n      mstore\n      returndatasize\n      0x00\n      0x20\n      dup5\n      add\n      returndatacopy\n      jump(tag_182)\n    tag_183:\n      0x60\n      swap2\n      pop\n    tag_182:\n      pop\n        /* \"src/ExecutionProxyDirect.sol\":6168:6266  (bool ok, bytes memory data) = token.call(abi.encodeCall(IERC20Direct.approve, (spender, amount))) */\n      swap2\n      pop\n      swap2\n      pop\n        /* \"src/ExecutionProxyDirect.sol\":6281:6283  ok */\n      dup2\n        /* \"src/ExecutionProxyDirect.sol\":6280:6283  !ok */\n      iszero\n        /* \"src/ExecutionProxyDirect.sol\":6280:6334  !ok || (data.length != 0 && !abi.decode(data, (bool))) */\n      dup1\n      tag_185\n      jumpi\n      pop\n        /* \"src/ExecutionProxyDirect.sol\":6288:6299  data.length */\n      dup1\n      mload\n        /* \"src/ExecutionProxyDirect.sol\":6288:6304  data.length != 0 */\n      iszero\n      dup1\n      iszero\n      swap1\n        /* \"src/ExecutionProxyDirect.sol\":6288:6333  data.length != 0 && !abi.decode(data, (bool)) */\n      tag_185\n      jumpi\n      pop\n        /* \"src/ExecutionProxyDirect.sol\":6320:6324  data */\n      dup1\n        /* \"src/ExecutionProxyDirect.sol\":6309:6333  abi.decode(data, (bool)) */\n      dup1\n      0x20\n      add\n      swap1\n      mload\n      dup2\n      add\n      swap1\n      tag_186\n      swap2\n      swap1\n      tag_175\n      jump\t// in\n    tag_186:\n        /* \"src/ExecutionProxyDirect.sol\":6308:6333  !abi.decode(data, (bool)) */\n      iszero\n        /* \"src/ExecutionProxyDirect.sol\":6288:6333  data.length != 0 && !abi.decode(data, (bool)) */\n    tag_185:\n        /* \"src/ExecutionProxyDirect.sol\":6276:6359  if (!ok || (data.length != 0 && !abi.decode(data, (bool)))) revert TransferFailed() */\n      iszero\n      tag_187\n      jumpi\n        /* \"src/ExecutionProxyDirect.sol\":6343:6359  TransferFailed() */\n      mload(0x40)\n      shl(0xe3, 0x12171d83)\n      dup2\n      mstore\n      0x04\n      add\n      mload(0x40)\n      dup1\n      swap2\n      sub\n      swap1\n      revert\n        /* \"src/ExecutionProxyDirect.sol\":6276:6359  if (!ok || (data.length != 0 && !abi.decode(data, (bool)))) revert TransferFailed() */\n    tag_187:\n        /* \"src/ExecutionProxyDirect.sol\":6158:6366  {... */\n      pop\n      pop\n        /* \"src/ExecutionProxyDirect.sol\":6079:6366  function _safeApprove(address token, address spender, uint256 amount) internal {... */\n      pop\n      pop\n      pop\n      jump\t// out\n        /* \"src/ExecutionProxyDirect.sol\":5002:5179  function _balanceOf(address token) internal view returns (uint256) {... */\n    tag_114:\n        /* \"src/ExecutionProxyDirect.sol\":5060:5067  uint256 */\n      0x00\n      sub(shl(0xa0, 0x01), 0x01)\n        /* \"src/ExecutionProxyDirect.sol\":5086:5101  token == NATIVE */\n      dup3\n      and\n      iszero\n        /* \"src/ExecutionProxyDirect.sol\":5086:5172  token == NATIVE ? address(this).balance : IERC20Direct(token).balanceOf(address(this)) */\n      tag_189\n      jumpi\n        /* \"src/ExecutionProxyDirect.sol\":5128:5172  IERC20Direct(token).balanceOf(address(this)) */\n      mload(0x40)\n      shl(0xe0, 0x70a08231)\n      dup2\n      mstore\n        /* \"src/ExecutionProxyDirect.sol\":5166:5170  this */\n      address\n        /* \"src/ExecutionProxyDirect.sol\":5128:5172  IERC20Direct(token).balanceOf(address(this)) */\n      0x04\n      dup3\n      add\n        /* \"#utility.yul\":779:830   */\n      mstore\n      sub(shl(0xa0, 0x01), 0x01)\n        /* \"src/ExecutionProxyDirect.sol\":5128:5157  IERC20Direct(token).balanceOf */\n      dup4\n      and\n      swap1\n      0x70a08231\n      swap1\n        /* \"#utility.yul\":752:770   */\n      0x24\n      add\n        /* \"src/ExecutionProxyDirect.sol\":5128:5172  IERC20Direct(token).balanceOf(address(this)) */\n      0x20\n      mload(0x40)\n      dup1\n      dup4\n      sub\n      dup2\n      dup7\n      gas\n      staticcall\n      iszero\n      dup1\n      iszero\n      tag_192\n      jumpi\n      returndatasize\n      0x00\n      dup1\n      returndatacopy\n      revert(0x00, returndatasize)\n    tag_192:\n      pop\n      pop\n      pop\n      pop\n      mload(0x40)\n      returndatasize\n      not(0x1f)\n      0x1f\n      dup3\n      add\n      and\n      dup3\n      add\n      dup1\n      0x40\n      mstore\n      pop\n      dup2\n      add\n      swap1\n      tag_193\n      swap2\n      swap1\n      tag_128\n      jump\t// in\n    tag_193:\n        /* \"src/ExecutionProxyDirect.sol\":5086:5172  token == NATIVE ? address(this).balance : IERC20Direct(token).balanceOf(address(this)) */\n      jump(tag_194)\n    tag_189:\n        /* \"src/ExecutionProxyDirect.sol\":5104:5125  address(this).balance */\n      selfbalance\n        /* \"src/ExecutionProxyDirect.sol\":5086:5172  token == NATIVE ? address(this).balance : IERC20Direct(token).balanceOf(address(this)) */\n    tag_194:\n        /* \"src/ExecutionProxyDirect.sol\":5079:5172  return token == NATIVE ? address(this).balance : IERC20Direct(token).balanceOf(address(this)) */\n      swap3\n        /* \"src/ExecutionProxyDirect.sol\":5002:5179  function _balanceOf(address token) internal view returns (uint256) {... */\n      swap2\n      pop\n      pop\n      jump\t// out\n        /* \"src/ExecutionProxyDirect.sol\":5481:5760  function _safeTransfer(address token, address to, uint256 amount) internal {... */\n    tag_131:\n        /* \"src/ExecutionProxyDirect.sol\":5608:5659  abi.encodeCall(IERC20Direct.transfer, (to, amount)) */\n      mload(0x40)\n      sub(shl(0xa0, 0x01), 0x01)\n        /* \"#utility.yul\":6127:6159   */\n      dup4\n      dup2\n      and\n        /* \"src/ExecutionProxyDirect.sol\":5608:5659  abi.encodeCall(IERC20Direct.transfer, (to, amount)) */\n      0x24\n      dup4\n      add\n        /* \"#utility.yul\":6109:6160   */\n      mstore\n        /* \"#utility.yul\":6176:6194   */\n      0x44\n      dup3\n      add\n        /* \"#utility.yul\":6169:6203   */\n      dup4\n      swap1\n      mstore\n        /* \"src/ExecutionProxyDirect.sol\":5567:5574  bool ok */\n      0x00\n      swap2\n      dup3\n      swap2\n        /* \"src/ExecutionProxyDirect.sol\":5597:5607  token.call */\n      dup7\n      and\n      swap1\n        /* \"#utility.yul\":6082:6100   */\n      0x64\n      add\n        /* \"src/ExecutionProxyDirect.sol\":5608:5659  abi.encodeCall(IERC20Direct.transfer, (to, amount)) */\n      0x40\n      dup1\n      mload\n      not(0x1f)\n      dup2\n      dup5\n      sub\n      add\n      dup2\n      mstore\n      swap2\n      dup2\n      mstore\n      0x20\n      dup3\n      add\n      dup1\n      mload\n      sub(shl(0xe0, 0x01), 0x01)\n      and\n      shl(0xe0, 0xa9059cbb)\n      or\n      swap1\n      mstore\n        /* \"src/ExecutionProxyDirect.sol\":5597:5660  token.call(abi.encodeCall(IERC20Direct.transfer, (to, amount))) */\n      mload\n      tag_180\n      swap2\n        /* \"src/ExecutionProxyDirect.sol\":5608:5659  abi.encodeCall(IERC20Direct.transfer, (to, amount)) */\n      swap1\n        /* \"src/ExecutionProxyDirect.sol\":5597:5660  token.call(abi.encodeCall(IERC20Direct.transfer, (to, amount))) */\n      tag_168\n      jump\t// in\n        /* \"#utility.yul\":196:369   */\n    tag_205:\n        /* \"#utility.yul\":264:284   */\n      dup1\n      calldataload\n      sub(shl(0xa0, 0x01), 0x01)\n        /* \"#utility.yul\":313:344   */\n      dup2\n      and\n        /* \"#utility.yul\":303:345   */\n      dup2\n      eq\n        /* \"#utility.yul\":293:363   */\n      tag_211\n      jumpi\n        /* \"#utility.yul\":359:360   */\n      0x00\n        /* \"#utility.yul\":356:357   */\n      dup1\n        /* \"#utility.yul\":349:361   */\n      revert\n        /* \"#utility.yul\":293:363   */\n    tag_211:\n        /* \"#utility.yul\":196:369   */\n      swap2\n      swap1\n      pop\n      jump\t// out\n        /* \"#utility.yul\":374:628   */\n    tag_28:\n        /* \"#utility.yul\":442:448   */\n      0x00\n        /* \"#utility.yul\":450:456   */\n      dup1\n        /* \"#utility.yul\":503:505   */\n      0x40\n        /* \"#utility.yul\":491:500   */\n      dup4\n        /* \"#utility.yul\":482:489   */\n      dup6\n        /* \"#utility.yul\":478:501   */\n      sub\n        /* \"#utility.yul\":474:506   */\n      slt\n        /* \"#utility.yul\":471:523   */\n      iszero\n      tag_213\n      jumpi\n        /* \"#utility.yul\":519:520   */\n      0x00\n        /* \"#utility.yul\":516:517   */\n      dup1\n        /* \"#utility.yul\":509:521   */\n      revert\n        /* \"#utility.yul\":471:523   */\n    tag_213:\n        /* \"#utility.yul\":542:571   */\n      tag_214\n        /* \"#utility.yul\":561:570   */\n      dup4\n        /* \"#utility.yul\":542:571   */\n      tag_205\n      jump\t// in\n    tag_214:\n        /* \"#utility.yul\":532:571   */\n      swap5\n        /* \"#utility.yul\":618:620   */\n      0x20\n        /* \"#utility.yul\":603:621   */\n      swap4\n      swap1\n      swap4\n      add\n        /* \"#utility.yul\":590:622   */\n      calldataload\n      swap4\n      pop\n      pop\n      pop\n        /* \"#utility.yul\":374:628   */\n      jump\t// out\n        /* \"#utility.yul\":841:1021   */\n    tag_38:\n        /* \"#utility.yul\":900:906   */\n      0x00\n        /* \"#utility.yul\":953:955   */\n      0x20\n        /* \"#utility.yul\":941:950   */\n      dup3\n        /* \"#utility.yul\":932:939   */\n      dup5\n        /* \"#utility.yul\":928:951   */\n      sub\n        /* \"#utility.yul\":924:956   */\n      slt\n        /* \"#utility.yul\":921:973   */\n      iszero\n      tag_217\n      jumpi\n        /* \"#utility.yul\":969:970   */\n      0x00\n        /* \"#utility.yul\":966:967   */\n      dup1\n        /* \"#utility.yul\":959:971   */\n      revert\n        /* \"#utility.yul\":921:973   */\n    tag_217:\n      pop\n        /* \"#utility.yul\":992:1015   */\n      calldataload\n      swap2\n        /* \"#utility.yul\":841:1021   */\n      swap1\n      pop\n      jump\t// out\n        /* \"#utility.yul\":1026:1212   */\n    tag_47:\n        /* \"#utility.yul\":1085:1091   */\n      0x00\n        /* \"#utility.yul\":1138:1140   */\n      0x20\n        /* \"#utility.yul\":1126:1135   */\n      dup3\n        /* \"#utility.yul\":1117:1124   */\n      dup5\n        /* \"#utility.yul\":1113:1136   */\n      sub\n        /* \"#utility.yul\":1109:1141   */\n      slt\n        /* \"#utility.yul\":1106:1158   */\n      iszero\n      tag_219\n      jumpi\n        /* \"#utility.yul\":1154:1155   */\n      0x00\n        /* \"#utility.yul\":1151:1152   */\n      dup1\n        /* \"#utility.yul\":1144:1156   */\n      revert\n        /* \"#utility.yul\":1106:1158   */\n    tag_219:\n        /* \"#utility.yul\":1177:1206   */\n      tag_220\n        /* \"#utility.yul\":1196:1205   */\n      dup3\n        /* \"#utility.yul\":1177:1206   */\n      tag_205\n      jump\t// in\n    tag_220:\n        /* \"#utility.yul\":1167:1206   */\n      swap4\n        /* \"#utility.yul\":1026:1212   */\n      swap3\n      pop\n      pop\n      pop\n      jump\t// out\n        /* \"#utility.yul\":1409:1527   */\n    tag_206:\n        /* \"#utility.yul\":1495:1500   */\n      dup1\n        /* \"#utility.yul\":1488:1501   */\n      iszero\n        /* \"#utility.yul\":1481:1502   */\n      iszero\n        /* \"#utility.yul\":1474:1479   */\n      dup2\n        /* \"#utility.yul\":1471:1503   */\n      eq\n        /* \"#utility.yul\":1461:1521   */\n      tag_223\n      jumpi\n        /* \"#utility.yul\":1517:1518   */\n      0x00\n        /* \"#utility.yul\":1514:1515   */\n      dup1\n        /* \"#utility.yul\":1507:1519   */\n      revert\n        /* \"#utility.yul\":1461:1521   */\n    tag_223:\n        /* \"#utility.yul\":1409:1527   */\n      pop\n      jump\t// out\n        /* \"#utility.yul\":1532:1847   */\n    tag_62:\n        /* \"#utility.yul\":1597:1603   */\n      0x00\n        /* \"#utility.yul\":1605:1611   */\n      dup1\n        /* \"#utility.yul\":1658:1660   */\n      0x40\n        /* \"#utility.yul\":1646:1655   */\n      dup4\n        /* \"#utility.yul\":1637:1644   */\n      dup6\n        /* \"#utility.yul\":1633:1656   */\n      sub\n        /* \"#utility.yul\":1629:1661   */\n      slt\n        /* \"#utility.yul\":1626:1678   */\n      iszero\n      tag_225\n      jumpi\n        /* \"#utility.yul\":1674:1675   */\n      0x00\n        /* \"#utility.yul\":1671:1672   */\n      dup1\n        /* \"#utility.yul\":1664:1676   */\n      revert\n        /* \"#utility.yul\":1626:1678   */\n    tag_225:\n        /* \"#utility.yul\":1697:1726   */\n      tag_226\n        /* \"#utility.yul\":1716:1725   */\n      dup4\n        /* \"#utility.yul\":1697:1726   */\n      tag_205\n      jump\t// in\n    tag_226:\n        /* \"#utility.yul\":1687:1726   */\n      swap2\n      pop\n        /* \"#utility.yul\":1776:1778   */\n      0x20\n        /* \"#utility.yul\":1765:1774   */\n      dup4\n        /* \"#utility.yul\":1761:1779   */\n      add\n        /* \"#utility.yul\":1748:1780   */\n      calldataload\n        /* \"#utility.yul\":1789:1817   */\n      tag_227\n        /* \"#utility.yul\":1811:1816   */\n      dup2\n        /* \"#utility.yul\":1789:1817   */\n      tag_206\n      jump\t// in\n    tag_227:\n        /* \"#utility.yul\":1836:1841   */\n      dup1\n        /* \"#utility.yul\":1826:1841   */\n      swap2\n      pop\n      pop\n        /* \"#utility.yul\":1532:1847   */\n      swap3\n      pop\n      swap3\n      swap1\n      pop\n      jump\t// out\n        /* \"#utility.yul\":1852:2873   */\n    tag_74:\n        /* \"#utility.yul\":1976:1982   */\n      0x00\n        /* \"#utility.yul\":1984:1990   */\n      dup1\n        /* \"#utility.yul\":1992:1998   */\n      0x00\n        /* \"#utility.yul\":2000:2006   */\n      dup1\n        /* \"#utility.yul\":2008:2014   */\n      0x00\n        /* \"#utility.yul\":2016:2022   */\n      dup1\n        /* \"#utility.yul\":2024:2030   */\n      0x00\n        /* \"#utility.yul\":2032:2038   */\n      dup1\n        /* \"#utility.yul\":2085:2088   */\n      0xe0\n        /* \"#utility.yul\":2073:2082   */\n      dup10\n        /* \"#utility.yul\":2064:2071   */\n      dup12\n        /* \"#utility.yul\":2060:2083   */\n      sub\n        /* \"#utility.yul\":2056:2089   */\n      slt\n        /* \"#utility.yul\":2053:2106   */\n      iszero\n      tag_229\n      jumpi\n        /* \"#utility.yul\":2102:2103   */\n      0x00\n        /* \"#utility.yul\":2099:2100   */\n      dup1\n        /* \"#utility.yul\":2092:2104   */\n      revert\n        /* \"#utility.yul\":2053:2106   */\n    tag_229:\n        /* \"#utility.yul\":2125:2154   */\n      tag_230\n        /* \"#utility.yul\":2144:2153   */\n      dup10\n        /* \"#utility.yul\":2125:2154   */\n      tag_205\n      jump\t// in\n    tag_230:\n        /* \"#utility.yul\":2115:2154   */\n      swap8\n      pop\n        /* \"#utility.yul\":2173:2211   */\n      tag_231\n        /* \"#utility.yul\":2207:2209   */\n      0x20\n        /* \"#utility.yul\":2196:2205   */\n      dup11\n        /* \"#utility.yul\":2192:2210   */\n      add\n        /* \"#utility.yul\":2173:2211   */\n      tag_205\n      jump\t// in\n    tag_231:\n        /* \"#utility.yul\":2163:2211   */\n      swap7\n      pop\n        /* \"#utility.yul\":2258:2260   */\n      0x40\n        /* \"#utility.yul\":2247:2256   */\n      dup10\n        /* \"#utility.yul\":2243:2261   */\n      add\n        /* \"#utility.yul\":2230:2262   */\n      calldataload\n        /* \"#utility.yul\":2220:2262   */\n      swap6\n      pop\n        /* \"#utility.yul\":2309:2311   */\n      0x60\n        /* \"#utility.yul\":2298:2307   */\n      dup10\n        /* \"#utility.yul\":2294:2312   */\n      add\n        /* \"#utility.yul\":2281:2313   */\n      calldataload\n        /* \"#utility.yul\":2271:2313   */\n      swap5\n      pop\n        /* \"#utility.yul\":2360:2363   */\n      0x80\n        /* \"#utility.yul\":2349:2358   */\n      dup10\n        /* \"#utility.yul\":2345:2364   */\n      add\n        /* \"#utility.yul\":2332:2365   */\n      calldataload\n        /* \"#utility.yul\":2322:2365   */\n      swap4\n      pop\n        /* \"#utility.yul\":2384:2423   */\n      tag_232\n        /* \"#utility.yul\":2418:2421   */\n      0xa0\n        /* \"#utility.yul\":2407:2416   */\n      dup11\n        /* \"#utility.yul\":2403:2422   */\n      add\n        /* \"#utility.yul\":2384:2423   */\n      tag_205\n      jump\t// in\n    tag_232:\n        /* \"#utility.yul\":2374:2423   */\n      swap3\n      pop\n        /* \"#utility.yul\":2474:2477   */\n      0xc0\n        /* \"#utility.yul\":2463:2472   */\n      dup10\n        /* \"#utility.yul\":2459:2478   */\n      add\n        /* \"#utility.yul\":2446:2479   */\n      calldataload\n        /* \"#utility.yul\":2498:2516   */\n      0xffffffffffffffff\n        /* \"#utility.yul\":2539:2541   */\n      dup1\n        /* \"#utility.yul\":2531:2537   */\n      dup3\n        /* \"#utility.yul\":2528:2542   */\n      gt\n        /* \"#utility.yul\":2525:2559   */\n      iszero\n      tag_233\n      jumpi\n        /* \"#utility.yul\":2555:2556   */\n      0x00\n        /* \"#utility.yul\":2552:2553   */\n      dup1\n        /* \"#utility.yul\":2545:2557   */\n      revert\n        /* \"#utility.yul\":2525:2559   */\n    tag_233:\n        /* \"#utility.yul\":2593:2599   */\n      dup2\n        /* \"#utility.yul\":2582:2591   */\n      dup12\n        /* \"#utility.yul\":2578:2600   */\n      add\n        /* \"#utility.yul\":2568:2600   */\n      swap2\n      pop\n        /* \"#utility.yul\":2638:2645   */\n      dup12\n        /* \"#utility.yul\":2631:2635   */\n      0x1f\n        /* \"#utility.yul\":2627:2629   */\n      dup4\n        /* \"#utility.yul\":2623:2636   */\n      add\n        /* \"#utility.yul\":2619:2646   */\n      slt\n        /* \"#utility.yul\":2609:2664   */\n      tag_234\n      jumpi\n        /* \"#utility.yul\":2660:2661   */\n      0x00\n        /* \"#utility.yul\":2657:2658   */\n      dup1\n        /* \"#utility.yul\":2650:2662   */\n      revert\n        /* \"#utility.yul\":2609:2664   */\n    tag_234:\n        /* \"#utility.yul\":2700:2702   */\n      dup2\n        /* \"#utility.yul\":2687:2703   */\n      calldataload\n        /* \"#utility.yul\":2726:2728   */\n      dup2\n        /* \"#utility.yul\":2718:2724   */\n      dup2\n        /* \"#utility.yul\":2715:2729   */\n      gt\n        /* \"#utility.yul\":2712:2746   */\n      iszero\n      tag_235\n      jumpi\n        /* \"#utility.yul\":2742:2743   */\n      0x00\n        /* \"#utility.yul\":2739:2740   */\n      dup1\n        /* \"#utility.yul\":2732:2744   */\n      revert\n        /* \"#utility.yul\":2712:2746   */\n    tag_235:\n        /* \"#utility.yul\":2787:2794   */\n      dup13\n        /* \"#utility.yul\":2782:2784   */\n      0x20\n        /* \"#utility.yul\":2773:2779   */\n      dup3\n        /* \"#utility.yul\":2769:2771   */\n      dup6\n        /* \"#utility.yul\":2765:2780   */\n      add\n        /* \"#utility.yul\":2761:2785   */\n      add\n        /* \"#utility.yul\":2758:2795   */\n      gt\n        /* \"#utility.yul\":2755:2812   */\n      iszero\n      tag_236\n      jumpi\n        /* \"#utility.yul\":2808:2809   */\n      0x00\n        /* \"#utility.yul\":2805:2806   */\n      dup1\n        /* \"#utility.yul\":2798:2810   */\n      revert\n        /* \"#utility.yul\":2755:2812   */\n    tag_236:\n        /* \"#utility.yul\":2839:2841   */\n      0x20\n        /* \"#utility.yul\":2835:2837   */\n      dup4\n        /* \"#utility.yul\":2831:2842   */\n      add\n        /* \"#utility.yul\":2821:2842   */\n      swap5\n      pop\n        /* \"#utility.yul\":2861:2867   */\n      dup1\n        /* \"#utility.yul\":2851:2867   */\n      swap4\n      pop\n      pop\n      pop\n      pop\n        /* \"#utility.yul\":1852:2873   */\n      swap3\n      swap6\n      swap9\n      pop\n      swap3\n      swap6\n      swap9\n      swap1\n      swap4\n      swap7\n      pop\n      jump\t// out\n        /* \"#utility.yul\":3131:3402   */\n    tag_118:\n        /* \"#utility.yul\":3314:3320   */\n      dup2\n        /* \"#utility.yul\":3306:3312   */\n      dup4\n        /* \"#utility.yul\":3301:3304   */\n      dup3\n        /* \"#utility.yul\":3288:3321   */\n      calldatacopy\n        /* \"#utility.yul\":3270:3273   */\n      0x00\n        /* \"#utility.yul\":3340:3356   */\n      swap2\n      add\n        /* \"#utility.yul\":3365:3378   */\n      swap1\n      dup2\n      mstore\n        /* \"#utility.yul\":3340:3356   */\n      swap2\n        /* \"#utility.yul\":3131:3402   */\n      swap1\n      pop\n      jump\t// out\n        /* \"#utility.yul\":3407:3591   */\n    tag_128:\n        /* \"#utility.yul\":3477:3483   */\n      0x00\n        /* \"#utility.yul\":3530:3532   */\n      0x20\n        /* \"#utility.yul\":3518:3527   */\n      dup3\n        /* \"#utility.yul\":3509:3516   */\n      dup5\n        /* \"#utility.yul\":3505:3528   */\n      sub\n        /* \"#utility.yul\":3501:3533   */\n      slt\n        /* \"#utility.yul\":3498:3550   */\n      iszero\n      tag_240\n      jumpi\n        /* \"#utility.yul\":3546:3547   */\n      0x00\n        /* \"#utility.yul\":3543:3544   */\n      dup1\n        /* \"#utility.yul\":3536:3548   */\n      revert\n        /* \"#utility.yul\":3498:3550   */\n    tag_240:\n      pop\n        /* \"#utility.yul\":3569:3585   */\n      mload\n      swap2\n        /* \"#utility.yul\":3407:3591   */\n      swap1\n      pop\n      jump\t// out\n        /* \"#utility.yul\":3596:3723   */\n    tag_207:\n        /* \"#utility.yul\":3657:3667   */\n      0x4e487b71\n        /* \"#utility.yul\":3652:3655   */\n      0xe0\n        /* \"#utility.yul\":3648:3668   */\n      shl\n        /* \"#utility.yul\":3645:3646   */\n      0x00\n        /* \"#utility.yul\":3638:3669   */\n      mstore\n        /* \"#utility.yul\":3688:3692   */\n      0x11\n        /* \"#utility.yul\":3685:3686   */\n      0x04\n        /* \"#utility.yul\":3678:3693   */\n      mstore\n        /* \"#utility.yul\":3712:3716   */\n      0x24\n        /* \"#utility.yul\":3709:3710   */\n      0x00\n        /* \"#utility.yul\":3702:3717   */\n      revert\n        /* \"#utility.yul\":3728:3856   */\n    tag_135:\n        /* \"#utility.yul\":3795:3804   */\n      dup2\n      dup2\n      sub\n        /* \"#utility.yul\":3816:3827   */\n      dup2\n      dup2\n      gt\n        /* \"#utility.yul\":3813:3850   */\n      iszero\n      tag_194\n      jumpi\n        /* \"#utility.yul\":3830:3848   */\n      tag_194\n      tag_207\n      jump\t// in\n        /* \"#utility.yul\":3861:4029   */\n    tag_141:\n        /* \"#utility.yul\":3934:3943   */\n      dup1\n      dup3\n      mul\n        /* \"#utility.yul\":3965:3974   */\n      dup2\n      iszero\n        /* \"#utility.yul\":3982:3997   */\n      dup3\n      dup3\n      div\n        /* \"#utility.yul\":3976:3998   */\n      dup5\n      eq\n        /* \"#utility.yul\":3962:3999   */\n      or\n        /* \"#utility.yul\":3952:4023   */\n      tag_194\n      jumpi\n        /* \"#utility.yul\":4003:4021   */\n      tag_194\n      tag_207\n      jump\t// in\n        /* \"#utility.yul\":4034:4251   */\n    tag_143:\n        /* \"#utility.yul\":4074:4075   */\n      0x00\n        /* \"#utility.yul\":4100:4101   */\n      dup3\n        /* \"#utility.yul\":4090:4222   */\n      tag_249\n      jumpi\n        /* \"#utility.yul\":4144:4154   */\n      0x4e487b71\n        /* \"#utility.yul\":4139:4142   */\n      0xe0\n        /* \"#utility.yul\":4135:4155   */\n      shl\n        /* \"#utility.yul\":4132:4133   */\n      0x00\n        /* \"#utility.yul\":4125:4156   */\n      mstore\n        /* \"#utility.yul\":4179:4183   */\n      0x12\n        /* \"#utility.yul\":4176:4177   */\n      0x04\n        /* \"#utility.yul\":4169:4184   */\n      mstore\n        /* \"#utility.yul\":4207:4211   */\n      0x24\n        /* \"#utility.yul\":4204:4205   */\n      0x00\n        /* \"#utility.yul\":4197:4212   */\n      revert\n        /* \"#utility.yul\":4090:4222   */\n    tag_249:\n      pop\n        /* \"#utility.yul\":4236:4245   */\n      div\n      swap1\n        /* \"#utility.yul\":4034:4251   */\n      jump\t// out\n        /* \"#utility.yul\":5268:5680   */\n    tag_168:\n        /* \"#utility.yul\":5397:5400   */\n      0x00\n        /* \"#utility.yul\":5435:5441   */\n      dup3\n        /* \"#utility.yul\":5429:5442   */\n      mload\n        /* \"#utility.yul\":5460:5461   */\n      0x00\n        /* \"#utility.yul\":5470:5599   */\n    tag_254:\n        /* \"#utility.yul\":5484:5490   */\n      dup2\n        /* \"#utility.yul\":5481:5482   */\n      dup2\n        /* \"#utility.yul\":5478:5491   */\n      lt\n        /* \"#utility.yul\":5470:5599   */\n      iszero\n      tag_256\n      jumpi\n        /* \"#utility.yul\":5582:5586   */\n      0x20\n        /* \"#utility.yul\":5566:5580   */\n      dup2\n      dup7\n      add\n        /* \"#utility.yul\":5562:5587   */\n      dup2\n      add\n        /* \"#utility.yul\":5556:5588   */\n      mload\n        /* \"#utility.yul\":5543:5554   */\n      dup6\n      dup4\n      add\n        /* \"#utility.yul\":5536:5589   */\n      mstore\n        /* \"#utility.yul\":5499:5511   */\n      add\n        /* \"#utility.yul\":5470:5599   */\n      jump(tag_254)\n    tag_256:\n      pop\n        /* \"#utility.yul\":5654:5655   */\n      0x00\n        /* \"#utility.yul\":5618:5634   */\n      swap3\n      add\n        /* \"#utility.yul\":5643:5656   */\n      swap2\n      dup3\n      mstore\n      pop\n        /* \"#utility.yul\":5618:5634   */\n      swap2\n        /* \"#utility.yul\":5268:5680   */\n      swap1\n      pop\n      jump\t// out\n        /* \"#utility.yul\":5685:5930   */\n    tag_175:\n        /* \"#utility.yul\":5752:5758   */\n      0x00\n        /* \"#utility.yul\":5805:5807   */\n      0x20\n        /* \"#utility.yul\":5793:5802   */\n      dup3\n        /* \"#utility.yul\":5784:5791   */\n      dup5\n        /* \"#utility.yul\":5780:5803   */\n      sub\n        /* \"#utility.yul\":5776:5808   */\n      slt\n        /* \"#utility.yul\":5773:5825   */\n      iszero\n      tag_258\n      jumpi\n        /* \"#utility.yul\":5821:5822   */\n      0x00\n        /* \"#utility.yul\":5818:5819   */\n      dup1\n        /* \"#utility.yul\":5811:5823   */\n      revert\n        /* \"#utility.yul\":5773:5825   */\n    tag_258:\n        /* \"#utility.yul\":5853:5862   */\n      dup2\n        /* \"#utility.yul\":5847:5863   */\n      mload\n        /* \"#utility.yul\":5872:5900   */\n      tag_220\n        /* \"#utility.yul\":5894:5899   */\n      dup2\n        /* \"#utility.yul\":5872:5900   */\n      tag_206\n      jump\t// in\n\n    auxdata: 0xa2646970667358221220ec7b47cb158422136201887dfafb65332b9665b09c13302a96863ad20a436ac864736f6c63430008130033\n}\n","methodIdentifiers":{"MAX_FEE_BPS()":"d55be8c6","MAX_SLIPPAGE_BPS()":"e229cd76","NATIVE()":"a0cf0aea","approvedTargets(address)":"9779d1a6","executeSwap(address,address,uint256,uint256,uint256,address,bytes)":"f13545f0","feeBps()":"24a9d853","feeVault()":"478222c2","owner()":"8da5cb5b","rescueToken(address,uint256)":"33f3d628","setApprovedTarget(address,bool)":"b7f9a748","setFeeBps(uint256)":"72c27b62","setFeeVault(address)":"a591f97f","transferOwnership(address)":"f2fde38b"},"id":0}