{"abi":[{"type":"constructor","inputs":[{"name":"initialValue","type":"uint256","internalType":"uint256"}],"stateMutability":"nonpayable"},{"type":"function","name":"owner","inputs":[],"outputs":[{"name":"","type":"address","internalType":"address"}],"stateMutability":"view"},{"type":"function","name":"value","inputs":[],"outputs":[{"name":"","type":"uint256","internalType":"uint256"}],"stateMutability":"view"}],"bytecode":{"object":"0x608060405234801561001057600080fd5b5060405161012138038061012183398101604081905261002f91610049565b600080546001600160a01b03191633179055600155610062565b60006020828403121561005b57600080fd5b5051919050565b60b1806100706000396000f3fe6080604052348015600f57600080fd5b506004361060325760003560e01c80633fa4f2451460375780638da5cb5b146052575b600080fd5b603f60015481565b6040519081526020015b60405180910390f35b6000546064906001600160a01b031681565b6040516001600160a01b039091168152602001604956fea2646970667358221220abcc600664d035f89a1d77c8d641a3e06a53bd251c8f3ddc66d56eb7b2c41d1f64736f6c63430008180033","linkReferences":{}},"methodIdentifiers":{"owner()":"8da5cb5b","value()":"3fa4f245"},"id":46}