{"abi":[{"type":"receive","stateMutability":"payable"},{"type":"function","name":"MAX_FEE_BPS","inputs":[],"outputs":[{"name":"","type":"uint256","internalType":"uint256"}],"stateMutability":"view"},{"type":"function","name":"MAX_SLIPPAGE_BPS","inputs":[],"outputs":[{"name":"","type":"uint256","internalType":"uint256"}],"stateMutability":"view"},{"type":"function","name":"NATIVE","inputs":[],"outputs":[{"name":"","type":"address","internalType":"address"}],"stateMutability":"view"},{"type":"function","name":"approvedTargets","inputs":[{"name":"","type":"address","internalType":"address"}],"outputs":[{"name":"","type":"bool","internalType":"bool"}],"stateMutability":"view"},{"type":"function","name":"executeSwap","inputs":[{"name":"tokenIn","type":"address","internalType":"address"},{"name":"tokenOut","type":"address","internalType":"address"},{"name":"amountIn","type":"uint256","internalType":"uint256"},{"name":"minAmountOut","type":"uint256","internalType":"uint256"},{"name":"deadline","type":"uint256","internalType":"uint256"},{"name":"aggregatorTarget","type":"address","internalType":"address"},{"name":"aggregatorCalldata","type":"bytes","internalType":"bytes"}],"outputs":[{"name":"amountOut","type":"uint256","internalType":"uint256"}],"stateMutability":"payable"},{"type":"function","name":"feeBps","inputs":[],"outputs":[{"name":"","type":"uint256","internalType":"uint256"}],"stateMutability":"view"},{"type":"function","name":"feeVault","inputs":[],"outputs":[{"name":"","type":"address","internalType":"address"}],"stateMutability":"view"},{"type":"function","name":"initialize","inputs":[{"name":"_feeVault","type":"address","internalType":"address"},{"name":"_feeBps","type":"uint256","internalType":"uint256"}],"outputs":[],"stateMutability":"nonpayable"},{"type":"function","name":"owner","inputs":[],"outputs":[{"name":"","type":"address","internalType":"address"}],"stateMutability":"view"},{"type":"function","name":"proxiableUUID","inputs":[],"outputs":[{"name":"","type":"bytes32","internalType":"bytes32"}],"stateMutability":"view"},{"type":"function","name":"renounceOwnership","inputs":[],"outputs":[],"stateMutability":"nonpayable"},{"type":"function","name":"rescueToken","inputs":[{"name":"token","type":"address","internalType":"address"},{"name":"amount","type":"uint256","internalType":"uint256"}],"outputs":[],"stateMutability":"nonpayable"},{"type":"function","name":"setApprovedTarget","inputs":[{"name":"target","type":"address","internalType":"address"},{"name":"approved","type":"bool","internalType":"bool"}],"outputs":[],"stateMutability":"nonpayable"},{"type":"function","name":"setFeeBps","inputs":[{"name":"newFeeBps","type":"uint256","internalType":"uint256"}],"outputs":[],"stateMutability":"nonpayable"},{"type":"function","name":"setFeeVault","inputs":[{"name":"newVault","type":"address","internalType":"address"}],"outputs":[],"stateMutability":"nonpayable"},{"type":"function","name":"transferOwnership","inputs":[{"name":"newOwner","type":"address","internalType":"address"}],"outputs":[],"stateMutability":"nonpayable"},{"type":"function","name":"upgradeTo","inputs":[{"name":"newImplementation","type":"address","internalType":"address"}],"outputs":[],"stateMutability":"nonpayable"},{"type":"function","name":"upgradeToAndCall","inputs":[{"name":"newImplementation","type":"address","internalType":"address"},{"name":"data","type":"bytes","internalType":"bytes"}],"outputs":[],"stateMutability":"payable"},{"type":"event","name":"AdminChanged","inputs":[{"name":"previousAdmin","type":"address","indexed":false,"internalType":"address"},{"name":"newAdmin","type":"address","indexed":false,"internalType":"address"}],"anonymous":false},{"type":"event","name":"BeaconUpgraded","inputs":[{"name":"beacon","type":"address","indexed":true,"internalType":"address"}],"anonymous":false},{"type":"event","name":"FeeUpdated","inputs":[{"name":"oldFeeBps","type":"uint256","indexed":false,"internalType":"uint256"},{"name":"newFeeBps","type":"uint256","indexed":false,"internalType":"uint256"}],"anonymous":false},{"type":"event","name":"Initialized","inputs":[{"name":"version","type":"uint8","indexed":false,"internalType":"uint8"}],"anonymous":false},{"type":"event","name":"OwnershipTransferred","inputs":[{"name":"previousOwner","type":"address","indexed":true,"internalType":"address"},{"name":"newOwner","type":"address","indexed":true,"internalType":"address"}],"anonymous":false},{"type":"event","name":"SwapExecuted","inputs":[{"name":"user","type":"address","indexed":true,"internalType":"address"},{"name":"tokenIn","type":"address","indexed":true,"internalType":"address"},{"name":"tokenOut","type":"address","indexed":true,"internalType":"address"},{"name":"amountIn","type":"uint256","indexed":false,"internalType":"uint256"},{"name":"amountOut","type":"uint256","indexed":false,"internalType":"uint256"},{"name":"aggregator","type":"address","indexed":false,"internalType":"address"},{"name":"feeAmount","type":"uint256","indexed":false,"internalType":"uint256"}],"anonymous":false},{"type":"event","name":"TargetApproved","inputs":[{"name":"target","type":"address","indexed":true,"internalType":"address"},{"name":"approved","type":"bool","indexed":false,"internalType":"bool"}],"anonymous":false},{"type":"event","name":"Upgraded","inputs":[{"name":"implementation","type":"address","indexed":true,"internalType":"address"}],"anonymous":false},{"type":"error","name":"DeadlineExpired","inputs":[]},{"type":"error","name":"FeeTooHigh","inputs":[{"name":"proposed","type":"uint256","internalType":"uint256"},{"name":"max","type":"uint256","internalType":"uint256"}]},{"type":"error","name":"InvalidAmount","inputs":[]},{"type":"error","name":"SlippageExceeded","inputs":[{"name":"minRequired","type":"uint256","internalType":"uint256"},{"name":"received","type":"uint256","internalType":"uint256"}]},{"type":"error","name":"TransferFailed","inputs":[]},{"type":"error","name":"UnauthorizedTarget","inputs":[{"name":"target","type":"address","internalType":"address"}]}],"bytecode":{"object":"0x60a06040523060805234801561001457600080fd5b50608051611b8961004c6000396000818161041e01528181610467015281816105060152818161054601526105d50152611b896000f3fe60806040526004361061010d5760003560e01c80639779d1a611610095578063cd6dc68711610064578063cd6dc687146102cc578063d55be8c6146102ec578063e229cd7614610301578063f13545f014610317578063f2fde38b1461032a57600080fd5b80639779d1a614610237578063a0cf0aea14610277578063a591f97f1461028c578063b7f9a748146102ac57600080fd5b80634f1ef286116100dc5780634f1ef286146101bc57806352d1902d146101cf578063715018a6146101e457806372c27b62146101f95780638da5cb5b1461021957600080fd5b806324a9d8531461011957806333f3d628146101425780633659cfe614610164578063478222c21461018457600080fd5b3661011457005b600080fd5b34801561012557600080fd5b5061012f60fc5481565b6040519081526020015b60405180910390f35b34801561014e57600080fd5b5061016261015d3660046116d2565b61034a565b005b34801561017057600080fd5b5061016261017f3660046116fc565b610414565b34801561019057600080fd5b5060fb546101a4906001600160a01b031681565b6040516001600160a01b039091168152602001610139565b6101626101ca36600461172d565b6104fc565b3480156101db57600080fd5b5061012f6105c8565b3480156101f057600080fd5b5061016261067b565b34801561020557600080fd5b506101626102143660046117ef565b61068f565b34801561022557600080fd5b506097546001600160a01b03166101a4565b34801561024357600080fd5b506102676102523660046116fc565b60fd6020526000908152604090205460ff1681565b6040519015158152602001610139565b34801561028357600080fd5b506101a4600081565b34801561029857600080fd5b506101626102a73660046116fc565b610704565b3480156102b857600080fd5b506101626102c7366004611816565b61072e565b3480156102d857600080fd5b506101626102e73660046116d2565b610795565b3480156102f857600080fd5b5061012f603281565b34801561030d57600080fd5b5061012f6103e881565b61012f61032536600461184d565b610903565b34801561033657600080fd5b506101626103453660046116fc565b610d1e565b610352610d94565b6001600160a01b0382166103ea5760006103746097546001600160a01b031690565b6001600160a01b03168260405160006040518083038185875af1925050503d80600081146103be576040519150601f19603f3d011682016040523d82523d6000602084013e6103c3565b606091505b50509050806103e5576040516312171d8360e31b815260040160405180910390fd5b505050565b6104106103ff6097546001600160a01b031690565b6001600160a01b0384169083610dee565b5050565b6001600160a01b037f00000000000000000000000000000000000000000000000000000000000000001630036104655760405162461bcd60e51b815260040161045c9061190e565b60405180910390fd5b7f00000000000000000000000000000000000000000000000000000000000000006001600160a01b03166104ae600080516020611b0d833981519152546001600160a01b031690565b6001600160a01b0316146104d45760405162461bcd60e51b815260040161045c9061195a565b6104dd81610e51565b604080516000808252602082019092526104f991839190610e59565b50565b6001600160a01b037f00000000000000000000000000000000000000000000000000000000000000001630036105445760405162461bcd60e51b815260040161045c9061190e565b7f00000000000000000000000000000000000000000000000000000000000000006001600160a01b031661058d600080516020611b0d833981519152546001600160a01b031690565b6001600160a01b0316146105b35760405162461bcd60e51b815260040161045c9061195a565b6105bc82610e51565b61041082826001610e59565b6000306001600160a01b037f000000000000000000000000000000000000000000000000000000000000000016146106685760405162461bcd60e51b815260206004820152603860248201527f555550535570677261646561626c653a206d757374206e6f742062652063616c60448201527f6c6564207468726f7567682064656c656761746563616c6c0000000000000000606482015260840161045c565b50600080516020611b0d83398151915290565b610683610d94565b61068d6000610fc4565b565b610697610d94565b60328111156106c3576040516373ab893560e11b8152600481018290526032602482015260440161045c565b60fc5460408051918252602082018390527f528d9479e9f9889a87a3c30c7f7ba537e5e59c4c85a37733b16e57c62df61302910160405180910390a160fc55565b61070c610d94565b60fb80546001600160a01b0319166001600160a01b0392909216919091179055565b610736610d94565b6001600160a01b038216600081815260fd6020908152604091829020805460ff191685151590811790915591519182527f1544fe18ad8a1b607a5147fee4bed9273c6c8c53b721318602ef311de4f4c939910160405180910390a25050565b600054610100900460ff16158080156107b55750600054600160ff909116105b806107cf5750303b1580156107cf575060005460ff166001145b6108325760405162461bcd60e51b815260206004820152602e60248201527f496e697469616c697a61626c653a20636f6e747261637420697320616c72656160448201526d191e481a5b9a5d1a585b1a5e995960921b606482015260840161045c565b6000805460ff191660011790558015610855576000805461ff0019166101001790555b61085d611016565b610865611045565b61086d611074565b6032821115610899576040516373ab893560e11b8152600481018390526032602482015260440161045c565b60fb80546001600160a01b0319166001600160a01b03851617905560fc82905580156103e5576000805461ff0019169055604051600181527f7f26b83ff96e1f2b6a682f133852f6798a09c465da95921460cefb38474024989060200160405180910390a1505050565b600061090d61109b565b6001600160a01b038416600090815260fd602052604090205460ff16610951576040516310d59ca160e21b81526001600160a01b038516600482015260240161045c565b866000036109725760405163162908e360e11b815260040160405180910390fd5b8442111561099357604051631ab7da6b60e01b815260040160405180910390fd5b6001600160a01b03891615610a2c576109b76001600160a01b038a1633308a6110f4565b60405163095ea7b360e01b81526001600160a01b038581166004830152602482018990528a169063095ea7b3906044016020604051808303816000875af1158015610a06573d6000803e3d6000fd5b505050506040513d601f19601f82011682018060405250810190610a2a91906119a6565b505b6000610a3789611132565b905060006001600160a01b038b1615610a51576000610a53565b885b90506000866001600160a01b0316828787604051610a729291906119c3565b60006040518083038185875af1925050503d8060008114610aaf576040519150601f19603f3d011682016040523d82523d6000602084013e610ab4565b606091505b5050905080610ad6576040516312171d8360e31b815260040160405180910390fd5b6001600160a01b038c1615610be2576040516370a0823160e01b81523060048201526000906001600160a01b038e16906370a0823190602401602060405180830381865afa158015610b2c573d6000803e3d6000fd5b505050506040513d601f19601f82011682018060405250810190610b5091906119d3565b90508015610b6c57610b6c6001600160a01b038e163383610dee565b60405163095ea7b360e01b81526001600160a01b038981166004830152600060248301528e169063095ea7b3906044016020604051808303816000875af1158015610bbb573d6000803e3d6000fd5b505050506040513d601f19601f82011682018060405250810190610bdf91906119a6565b50505b82610bec8c611132565b610bf69190611a02565b935088841015610c23576040516371c4efed60e01b8152600481018a90526024810185905260440161045c565b60008060fc5411610c35576000610c50565b61271060fc5486610c469190611a15565b610c509190611a2c565b90506000610c5e8287611a02565b90508115610c7e5760fb54610c7e908e906001600160a01b0316846111b8565b610c898d33836111b8565b8c6001600160a01b03168e6001600160a01b0316336001600160a01b03167f15c0f0cd3636d02094a48879a1b3d233ae630d140a0a65aeee9f3f9ba4e709898f858e88604051610cfb949392919093845260208401929092526001600160a01b03166040830152606082015260800190565b60405180910390a45050505050610d12600160c955565b98975050505050505050565b610d26610d94565b6001600160a01b038116610d8b5760405162461bcd60e51b815260206004820152602660248201527f4f776e61626c653a206e6577206f776e657220697320746865207a65726f206160448201526564647265737360d01b606482015260840161045c565b6104f981610fc4565b6097546001600160a01b0316331461068d5760405162461bcd60e51b815260206004820181905260248201527f4f776e61626c653a2063616c6c6572206973206e6f7420746865206f776e6572604482015260640161045c565b6040516001600160a01b0383166024820152604481018290526103e590849063a9059cbb60e01b906064015b60408051601f198184030181529190526020810180516001600160e01b03166001600160e01b031990931692909217909152611255565b6104f9610d94565b7f4910fdfa16fed3260ed0e7147f7cc6da11a60208b5b9406d12a635614ffd91435460ff1615610e8c576103e58361132a565b826001600160a01b03166352d1902d6040518163ffffffff1660e01b8152600401602060405180830381865afa925050508015610ee6575060408051601f3d908101601f19168201909252610ee3918101906119d3565b60015b610f495760405162461bcd60e51b815260206004820152602e60248201527f45524331393637557067726164653a206e657720696d706c656d656e7461746960448201526d6f6e206973206e6f74205555505360901b606482015260840161045c565b600080516020611b0d8339815191528114610fb85760405162461bcd60e51b815260206004820152602960248201527f45524331393637557067726164653a20756e737570706f727465642070726f786044820152681a58589b195555525160ba1b606482015260840161045c565b506103e58383836113c6565b609780546001600160a01b038381166001600160a01b0319831681179093556040519116919082907f8be0079c531659141344cd1fd0a4f28419497f9722a3daafe3b4186f6b6457e090600090a35050565b600054610100900460ff1661103d5760405162461bcd60e51b815260040161045c90611a4e565b61068d6113eb565b600054610100900460ff1661106c5760405162461bcd60e51b815260040161045c90611a4e565b61068d61141b565b600054610100900460ff1661068d5760405162461bcd60e51b815260040161045c90611a4e565b600260c954036110ed5760405162461bcd60e51b815260206004820152601f60248201527f5265656e7472616e637947756172643a207265656e7472616e742063616c6c00604482015260640161045c565b600260c955565b6040516001600160a01b038085166024830152831660448201526064810182905261112c9085906323b872dd60e01b90608401610e1a565b50505050565b60006001600160a01b038216156111b0576040516370a0823160e01b81523060048201526001600160a01b038316906370a0823190602401602060405180830381865afa158015611187573d6000803e3d6000fd5b505050506040513d601f19601f820116820180604052508101906111ab91906119d3565b6111b2565b475b92915050565b6001600160a01b03831661123a576000826001600160a01b03168260405160006040518083038185875af1925050503d8060008114611213576040519150601f19603f3d011682016040523d82523d6000602084013e611218565b606091505b505090508061112c576040516312171d8360e31b815260040160405180910390fd5b6103e56001600160a01b0384168383610dee565b600160c955565b60006112aa826040518060400160405280602081526020017f5361666545524332303a206c6f772d6c6576656c2063616c6c206661696c6564815250856001600160a01b03166114429092919063ffffffff16565b90508051600014806112cb5750808060200190518101906112cb91906119a6565b6103e55760405162461bcd60e51b815260206004820152602a60248201527f5361666545524332303a204552433230206f7065726174696f6e20646964206e6044820152691bdd081cdd58d8d9595960b21b606482015260840161045c565b6001600160a01b0381163b6113975760405162461bcd60e51b815260206004820152602d60248201527f455243313936373a206e657720696d706c656d656e746174696f6e206973206e60448201526c1bdd08184818dbdb9d1c9858dd609a1b606482015260840161045c565b600080516020611b0d83398151915280546001600160a01b0319166001600160a01b0392909216919091179055565b6113cf83611459565b6000825111806113dc5750805b156103e55761112c8383611499565b600054610100900460ff166114125760405162461bcd60e51b815260040161045c90611a4e565b61068d33610fc4565b600054610100900460ff1661124e5760405162461bcd60e51b815260040161045c90611a4e565b606061145184846000856114c5565b949350505050565b6114628161132a565b6040516001600160a01b038216907fbc7cd75a20ee27fd9adebab32041f755214dbc6bffa90cc0225b39da2e5c2d3b90600090a250565b60606114be8383604051806060016040528060278152602001611b2d602791396115a0565b9392505050565b6060824710156115265760405162461bcd60e51b815260206004820152602660248201527f416464726573733a20696e73756666696369656e742062616c616e636520666f6044820152651c8818d85b1b60d21b606482015260840161045c565b600080866001600160a01b031685876040516115429190611abd565b60006040518083038185875af1925050503d806000811461157f576040519150601f19603f3d011682016040523d82523d6000602084013e611584565b606091505b509150915061159587838387611618565b979650505050505050565b6060600080856001600160a01b0316856040516115bd9190611abd565b600060405180830381855af49150503d80600081146115f8576040519150601f19603f3d011682016040523d82523d6000602084013e6115fd565b606091505b509150915061160e86838387611618565b9695505050505050565b60608315611687578251600003611680576001600160a01b0385163b6116805760405162461bcd60e51b815260206004820152601d60248201527f416464726573733a2063616c6c20746f206e6f6e2d636f6e7472616374000000604482015260640161045c565b5081611451565b611451838381511561169c5781518083602001fd5b8060405162461bcd60e51b815260040161045c9190611ad9565b80356001600160a01b03811681146116cd57600080fd5b919050565b600080604083850312156116e557600080fd5b6116ee836116b6565b946020939093013593505050565b60006020828403121561170e57600080fd5b6114be826116b6565b634e487b7160e01b600052604160045260246000fd5b6000806040838503121561174057600080fd5b611749836116b6565b9150602083013567ffffffffffffffff8082111561176657600080fd5b818501915085601f83011261177a57600080fd5b81358181111561178c5761178c611717565b604051601f8201601f19908116603f011681019083821181831017156117b4576117b4611717565b816040528281528860208487010111156117cd57600080fd5b8260208601602083013760006020848301015280955050505050509250929050565b60006020828403121561180157600080fd5b5035919050565b80151581146104f957600080fd5b6000806040838503121561182957600080fd5b611832836116b6565b9150602083013561184281611808565b809150509250929050565b60008060008060008060008060e0898b03121561186957600080fd5b611872896116b6565b975061188060208a016116b6565b96506040890135955060608901359450608089013593506118a360a08a016116b6565b925060c089013567ffffffffffffffff808211156118c057600080fd5b818b0191508b601f8301126118d457600080fd5b8135818111156118e357600080fd5b8c60208285010111156118f557600080fd5b6020830194508093505050509295985092959890939650565b6020808252602c908201527f46756e6374696f6e206d7573742062652063616c6c6564207468726f7567682060408201526b19195b1959d85d1958d85b1b60a21b606082015260800190565b6020808252602c908201527f46756e6374696f6e206d7573742062652063616c6c6564207468726f7567682060408201526b6163746976652070726f787960a01b606082015260800190565b6000602082840312156119b857600080fd5b81516114be81611808565b8183823760009101908152919050565b6000602082840312156119e557600080fd5b5051919050565b634e487b7160e01b600052601160045260246000fd5b818103818111156111b2576111b26119ec565b80820281158282048414176111b2576111b26119ec565b600082611a4957634e487b7160e01b600052601260045260246000fd5b500490565b6020808252602b908201527f496e697469616c697a61626c653a20636f6e7472616374206973206e6f74206960408201526a6e697469616c697a696e6760a81b606082015260800190565b60005b83811015611ab4578181015183820152602001611a9c565b50506000910152565b60008251611acf818460208701611a99565b9190910192915050565b6020815260008251806020840152611af8816040850160208701611a99565b601f01601f1916919091016040019291505056fe360894a13ba1a3210667c828492db98dca3e2076cc3735a920a3ca505d382bbc416464726573733a206c6f772d6c6576656c2064656c65676174652063616c6c206661696c6564a26469706673582212201c65f0b145c2d4993faf77fb8c27350d45fc9189f3a5b3cecbe2ebca91214ea264736f6c63430008180033","linkReferences":{}},"methodIdentifiers":{"MAX_FEE_BPS()":"d55be8c6","MAX_SLIPPAGE_BPS()":"e229cd76","NATIVE()":"a0cf0aea","approvedTargets(address)":"9779d1a6","executeSwap(address,address,uint256,uint256,uint256,address,bytes)":"f13545f0","feeBps()":"24a9d853","feeVault()":"478222c2","initialize(address,uint256)":"cd6dc687","owner()":"8da5cb5b","proxiableUUID()":"52d1902d","renounceOwnership()":"715018a6","rescueToken(address,uint256)":"33f3d628","setApprovedTarget(address,bool)":"b7f9a748","setFeeBps(uint256)":"72c27b62","setFeeVault(address)":"a591f97f","transferOwnership(address)":"f2fde38b","upgradeTo(address)":"3659cfe6","upgradeToAndCall(address,bytes)":"4f1ef286"},"id":47}